{
  "contractName": "ERC1155Batch",
  "abi": [
    {
      "inputs": [],
      "name": "tokenContract",
      "outputs": [
        {
          "internalType": "address",
          "name": "",
          "type": "address"
        }
      ],
      "stateMutability": "view",
      "type": "function"
    }
  ],
  "bytecode": "0x608060405234801561001057600080fd5b50d3801561001d57600080fd5b50d2801561002a57600080fd5b5060a9806100396000396000f3fe6080604052348015600f57600080fd5b50d38015601b57600080fd5b50d28015602757600080fd5b506004361060405760003560e01c806355a373d6146045575b600080fd5b6000546057906001600160a01b031681565b6040516001600160a01b03909116815260200160405180910390f3fea26474726f6e5822122073ba6f30db9e723d18c97f4fdcc19fccea8dde23541297404301ed16e234384664736f6c63430008060033",
  "source": "// SPDX-License-Identifier: MIT\r\npragma solidity ^0.8.0;\r\n\r\nimport \"@openzeppelin/contracts/token/ERC1155/IERC1155.sol\";\r\nimport \"../libraries/Array.sol\";\r\n\r\n/**\r\n * @title ERC1155 Batch Contract\r\n * @author @Gr3it, @yuripaoloni (reviewer), @MatteoLeonesi (reviewer)\r\n * @notice Prevent Stack Too Deep Errors\r\n */\r\n\r\ncontract ERC1155Batch {\r\n    address public tokenContract;\r\n\r\n    function _batchInit(address _tokenContract) internal {\r\n        tokenContract = _tokenContract;\r\n    }\r\n\r\n    // avoids stack too deep errors\r\n    function safeBatchTransferFromPair(\r\n        address from,\r\n        address to,\r\n        uint256 id0,\r\n        uint256 id1,\r\n        uint256 amount0,\r\n        uint256 amount1\r\n    ) internal {\r\n        IERC1155(tokenContract).safeBatchTransferFrom(\r\n            from,\r\n            to,\r\n            Array.getArrayPair(id0, id1),\r\n            Array.getArrayPair(amount0, amount1),\r\n            \"\"\r\n        );\r\n    }\r\n\r\n    // avoids stack too deep errors\r\n    function balanceOfBatchPair(\r\n        address account,\r\n        uint256 id0,\r\n        uint256 id1\r\n    ) internal view returns (uint256 balance0, uint256 balance1) {\r\n        uint256[] memory batchBalances = new uint256[](2);\r\n\r\n        batchBalances = IERC1155(tokenContract).balanceOfBatch(\r\n            Array.getArrayPair(account, account),\r\n            Array.getArrayPair(id0, id1)\r\n        );\r\n\r\n        balance0 = batchBalances[0];\r\n        balance1 = batchBalances[1];\r\n    }\r\n}\r\n",
  "sourcePath": "C:\\Users\\emanu\\space-pirates-contracts\\contracts\\dex\\ERC1155Batch.sol",
  "compiler": {
    "name": "solc",
    "version": "0.8.6+commit.0e36fba0.mod.Emscripten.clang"
  },
  "schemaVersion": "2.0.1",
  "updatedAt": "2022-08-01T20:36:28.111Z"
}