{
  "contractName": "NFTCollectionFactory",
  "abi": [
    {
      "inputs": [
        {
          "internalType": "contract SpacePiratesTokens",
          "name": "_tokenContract",
          "type": "address"
        },
        {
          "internalType": "contract SpacePiratesNFT",
          "name": "_nftContract",
          "type": "address"
        }
      ],
      "stateMutability": "nonpayable",
      "type": "constructor"
    },
    {
      "anonymous": false,
      "inputs": [
        {
          "indexed": false,
          "internalType": "string",
          "name": "name",
          "type": "string"
        },
        {
          "indexed": false,
          "internalType": "uint112",
          "name": "available",
          "type": "uint112"
        },
        {
          "indexed": false,
          "internalType": "uint64",
          "name": "start",
          "type": "uint64"
        },
        {
          "indexed": false,
          "internalType": "uint64",
          "name": "end",
          "type": "uint64"
        },
        {
          "indexed": false,
          "internalType": "uint16",
          "name": "maxMintPerAddress",
          "type": "uint16"
        }
      ],
      "name": "CreateCollection",
      "type": "event"
    },
    {
      "anonymous": false,
      "inputs": [
        {
          "indexed": true,
          "internalType": "string",
          "name": "name",
          "type": "string"
        },
        {
          "indexed": false,
          "internalType": "uint112",
          "name": "available",
          "type": "uint112"
        },
        {
          "indexed": false,
          "internalType": "uint64",
          "name": "start",
          "type": "uint64"
        },
        {
          "indexed": false,
          "internalType": "uint64",
          "name": "end",
          "type": "uint64"
        },
        {
          "indexed": false,
          "internalType": "uint16",
          "name": "maxMintPerAddress",
          "type": "uint16"
        }
      ],
      "name": "EditCollection",
      "type": "event"
    },
    {
      "anonymous": false,
      "inputs": [
        {
          "indexed": true,
          "internalType": "address",
          "name": "previousOwner",
          "type": "address"
        },
        {
          "indexed": true,
          "internalType": "address",
          "name": "newOwner",
          "type": "address"
        }
      ],
      "name": "OwnershipTransferred",
      "type": "event"
    },
    {
      "anonymous": false,
      "inputs": [
        {
          "indexed": false,
          "internalType": "uint128",
          "name": "newDoubloonsPrice",
          "type": "uint128"
        },
        {
          "indexed": false,
          "internalType": "uint128",
          "name": "newAsteroidsPrice",
          "type": "uint128"
        }
      ],
      "name": "SetPrice",
      "type": "event"
    },
    {
      "inputs": [],
      "name": "ASTEROIDS",
      "outputs": [
        {
          "internalType": "uint256",
          "name": "",
          "type": "uint256"
        }
      ],
      "stateMutability": "view",
      "type": "function"
    },
    {
      "inputs": [],
      "name": "DOUBLOONS",
      "outputs": [
        {
          "internalType": "uint256",
          "name": "",
          "type": "uint256"
        }
      ],
      "stateMutability": "view",
      "type": "function"
    },
    {
      "inputs": [],
      "name": "EVOCATION_GEM",
      "outputs": [
        {
          "internalType": "uint256",
          "name": "",
          "type": "uint256"
        }
      ],
      "stateMutability": "view",
      "type": "function"
    },
    {
      "inputs": [],
      "name": "asteroidsPrice",
      "outputs": [
        {
          "internalType": "uint128",
          "name": "",
          "type": "uint128"
        }
      ],
      "stateMutability": "view",
      "type": "function"
    },
    {
      "inputs": [
        {
          "internalType": "uint256",
          "name": "",
          "type": "uint256"
        }
      ],
      "name": "availableCollections",
      "outputs": [
        {
          "internalType": "string",
          "name": "",
          "type": "string"
        }
      ],
      "stateMutability": "view",
      "type": "function"
    },
    {
      "inputs": [
        {
          "internalType": "string",
          "name": "",
          "type": "string"
        }
      ],
      "name": "collections",
      "outputs": [
        {
          "internalType": "uint112",
          "name": "available",
          "type": "uint112"
        },
        {
          "internalType": "uint64",
          "name": "start",
          "type": "uint64"
        },
        {
          "internalType": "uint64",
          "name": "end",
          "type": "uint64"
        },
        {
          "internalType": "uint16",
          "name": "maxMintPerAddress",
          "type": "uint16"
        }
      ],
      "stateMutability": "view",
      "type": "function"
    },
    {
      "inputs": [
        {
          "internalType": "string",
          "name": "name",
          "type": "string"
        },
        {
          "internalType": "uint112",
          "name": "available",
          "type": "uint112"
        },
        {
          "internalType": "uint64",
          "name": "start",
          "type": "uint64"
        },
        {
          "internalType": "uint64",
          "name": "end",
          "type": "uint64"
        },
        {
          "internalType": "uint16",
          "name": "maxMintPerAddress",
          "type": "uint16"
        }
      ],
      "name": "createCollection",
      "outputs": [],
      "stateMutability": "nonpayable",
      "type": "function"
    },
    {
      "inputs": [],
      "name": "doubloonsPrice",
      "outputs": [
        {
          "internalType": "uint128",
          "name": "",
          "type": "uint128"
        }
      ],
      "stateMutability": "view",
      "type": "function"
    },
    {
      "inputs": [
        {
          "internalType": "string",
          "name": "name",
          "type": "string"
        },
        {
          "internalType": "uint112",
          "name": "available",
          "type": "uint112"
        },
        {
          "internalType": "uint64",
          "name": "start",
          "type": "uint64"
        },
        {
          "internalType": "uint64",
          "name": "end",
          "type": "uint64"
        },
        {
          "internalType": "uint16",
          "name": "maxMintPerAddress",
          "type": "uint16"
        }
      ],
      "name": "editCollection",
      "outputs": [],
      "stateMutability": "nonpayable",
      "type": "function"
    },
    {
      "inputs": [
        {
          "internalType": "string",
          "name": "",
          "type": "string"
        }
      ],
      "name": "exist",
      "outputs": [
        {
          "internalType": "bool",
          "name": "",
          "type": "bool"
        }
      ],
      "stateMutability": "view",
      "type": "function"
    },
    {
      "inputs": [],
      "name": "getCollectionsList",
      "outputs": [
        {
          "internalType": "string[]",
          "name": "",
          "type": "string[]"
        }
      ],
      "stateMutability": "view",
      "type": "function"
    },
    {
      "inputs": [
        {
          "internalType": "string",
          "name": "name",
          "type": "string"
        },
        {
          "internalType": "uint256",
          "name": "quantity",
          "type": "uint256"
        }
      ],
      "name": "mintCollectionItem",
      "outputs": [],
      "stateMutability": "nonpayable",
      "type": "function"
    },
    {
      "inputs": [
        {
          "internalType": "string",
          "name": "",
          "type": "string"
        },
        {
          "internalType": "address",
          "name": "",
          "type": "address"
        }
      ],
      "name": "nbrOfCollectionMinted",
      "outputs": [
        {
          "internalType": "uint256",
          "name": "",
          "type": "uint256"
        }
      ],
      "stateMutability": "view",
      "type": "function"
    },
    {
      "inputs": [],
      "name": "nftContract",
      "outputs": [
        {
          "internalType": "contract SpacePiratesNFT",
          "name": "",
          "type": "address"
        }
      ],
      "stateMutability": "view",
      "type": "function"
    },
    {
      "inputs": [],
      "name": "owner",
      "outputs": [
        {
          "internalType": "address",
          "name": "",
          "type": "address"
        }
      ],
      "stateMutability": "view",
      "type": "function"
    },
    {
      "inputs": [],
      "name": "renounceOwnership",
      "outputs": [],
      "stateMutability": "nonpayable",
      "type": "function"
    },
    {
      "inputs": [
        {
          "internalType": "uint128",
          "name": "newDoubloonsPrice",
          "type": "uint128"
        },
        {
          "internalType": "uint128",
          "name": "newAsteroidsPrice",
          "type": "uint128"
        }
      ],
      "name": "setPrice",
      "outputs": [],
      "stateMutability": "nonpayable",
      "type": "function"
    },
    {
      "inputs": [],
      "name": "tokenContract",
      "outputs": [
        {
          "internalType": "contract SpacePiratesTokens",
          "name": "",
          "type": "address"
        }
      ],
      "stateMutability": "view",
      "type": "function"
    },
    {
      "inputs": [
        {
          "internalType": "address",
          "name": "newOwner",
          "type": "address"
        }
      ],
      "name": "transferOwnership",
      "outputs": [],
      "stateMutability": "nonpayable",
      "type": "function"
    }
  ],
  "bytecode": "0x60c06040527801158e460913d00000000000000000021e19e0c9bab24000006001553480156200002e57600080fd5b50d380156200003c57600080fd5b50d280156200004a57600080fd5b5060405162001aa938038062001aa98339810160408190526200006d91620000e7565b620000783362000097565b6001600160601b0319606092831b811660a052911b166080526200014b565b600080546001600160a01b038381166001600160a01b0319831681178455604051919092169283917f8be0079c531659141344cd1fd0a4f28419497f9722a3daafe3b4186f6b6457e09190a35050565b60008060408385031215620000fb57600080fd5b8251620001088162000132565b60208401516001600160a01b03918216935090620001268262000132565b92959216935090915050565b6001600160a81b03811681146200014857600080fd5b50565b60805160601c60a05160601c61192462000185600039600081816101f70152610f4f01526000818161039b0152610fcf01526119246000f3fe608060405234801561001057600080fd5b50d3801561001d57600080fd5b50d2801561002a57600080fd5b506004361061013b5760003560e01c8063715018a6116100c75780639c7fd45b1161008b5780639c7fd45b1461036e578063c68c44ff1461038e578063d56d229d14610396578063e94fbf44146103bd578063f2fde38b146103c657600080fd5b8063715018a6146102f45780638da5cb5b146102fc5780638eb530461461030d57806396e728ae146103205780639c1fb8131461033357600080fd5b806347204a9e1161010e57806347204a9e146101d857806355a373d6146101f257806366e54d7b146102315780636712627d146102cb5780636a69288e146102e157600080fd5b8063057af1c4146101405780631b1040111461018357806340774999146101985780634546356c146101c3575b600080fd5b61016e61014e3660046114b1565b805160208183018101805160038252928201919093012091525460ff1681565b60405190151581526020015b60405180910390f35b61018b6103d9565b60405161017a91906116bc565b6001546101ab906001600160801b031681565b6040516001600160801b03909116815260200161017a565b6101d66101d136600461153a565b6104b2565b005b6001546101ab90600160801b90046001600160801b031681565b6102197f000000000000000000000000000000000000000000000000000000000000000081565b6040516001600160a01b03909116815260200161017a565b61029061023f3660046114b1565b80516020818301810180516004825292820191909301209152546001600160701b03811690600160701b81046001600160401b0390811691600160b01b810490911690600160f01b900461ffff1684565b604080516001600160701b039590951685526001600160401b039384166020860152919092169083015261ffff16606082015260800161017a565b6102d3600281565b60405190815260200161017a565b6101d66102ef3660046113ca565b61053e565b6101d6610795565b6000546001600160a01b0316610219565b6101d661031b3660046113ca565b6107cb565b6101d661032e366004611466565b6109e3565b6102d36103413660046114ed565b81516020818401810180516005825292820194820194909420919093529091526000908152604090205481565b61038161037c366004611564565b611049565b60405161017a919061176f565b6102d3600181565b6102197f000000000000000000000000000000000000000000000000000000000000000081565b6102d36103e981565b6101d66103d43660046113a8565b6110f5565b60606002805480602002602001604051908101604052809291908181526020016000905b828210156104a957838290600052602060002001805461041c90611851565b80601f016020809104026020016040519081016040528092919081815260200182805461044890611851565b80156104955780601f1061046a57610100808354040283529160200191610495565b820191906000526020600020905b81548152906001019060200180831161047857829003601f168201915b5050505050815260200190600101906103fd565b50505050905090565b6000546001600160a01b031633146104e55760405162461bcd60e51b81526004016104dc906117bd565b60405180910390fd5b6001600160801b03828116600160801b91831691820281176001556040805191825260208201929092527f1c29fab19c27f46c9f32712d4619d81aeccb665c42749f6267c5dc52716148a5910160405180910390a15050565b6000546001600160a01b031633146105685760405162461bcd60e51b81526004016104dc906117bd565b6003868660405161057a92919061162e565b9081526040519081900360200190205460ff16156105df5760405162461bcd60e51b815260206004820152602e60248201526000805160206118cf83398151915260448201526d08185b1c9958591e48195e1a5cdd60921b60648201526084016104dc565b6001600160701b0384166106055760405162461bcd60e51b81526004016104dc90611782565b60016003878760405161061992919061162e565b908152604051908190036020019020805491151560ff1990921691909117905560028054600181018255600091909152610676907f405787fa12a823e0f2b7631cc41b3ba8828b3321ca811111fa75cd3aa3bb5ace0187876111e0565b506040518060800160405280856001600160701b03168152602001846001600160401b03168152602001836001600160401b031681526020018261ffff16815250600487876040516106c992919061162e565b90815260408051918290036020908101832084518154928601519386015160609096015161ffff16600160f01b026001600160f01b036001600160401b03978816600160b01b02166001600160b01b0397909516600160701b026001600160b01b03199094166001600160701b0390921691909117929092179490941691909117179091557fed222f8c66d0c5798c4d8f971b558f0e027453d70dc57027a945b743a61361a9906107859088908890889088908890889061171e565b60405180910390a1505050505050565b6000546001600160a01b031633146107bf5760405162461bcd60e51b81526004016104dc906117bd565b6107c96000611190565b565b6000546001600160a01b031633146107f55760405162461bcd60e51b81526004016104dc906117bd565b6003868660405161080792919061162e565b9081526040519081900360200190205460ff1661086c5760405162461bcd60e51b815260206004820152602f60248201526000805160206118cf83398151915260448201526e08191bd95cc81b9bdd08195e1a5cdd608a1b60648201526084016104dc565b6001600160701b0384166108925760405162461bcd60e51b81526004016104dc90611782565b6040518060800160405280856001600160701b03168152602001846001600160401b03168152602001836001600160401b031681526020018261ffff16815250600487876040516108e492919061162e565b90815260408051918290036020908101832084518154928601519386015160609096015161ffff16600160f01b026001600160f01b036001600160401b03978816600160b01b02166001600160b01b0397909516600160701b026001600160b01b03199094166001600160701b039092169190911792909217949094169190911717909155610976908790879061162e565b604080519182900382206001600160701b03871683526001600160401b03868116602085015285168383015261ffff84166060840152905190917f39aac56b6a58eb0fd9766cbc485b55ba141fcf789b8108cbd94e933a4fda467b919081900360800190a2505050505050565b60008111610a425760405162461bcd60e51b815260206004820152602660248201527f4e4654436f6c6c656374696f6e466163746f72793a2063616e2774206d696e74604482015265080c0813919560d21b60648201526084016104dc565b60038383604051610a5492919061162e565b9081526040519081900360200190205460ff16610acf5760405162461bcd60e51b815260206004820152603360248201527f4e4654436f6c6c656374696f6e466163746f72793a2074686520636f6c6c65636044820152721d1a5bdb88191bd95cc81b9bdd08195e1a5cdd606a1b60648201526084016104dc565b600060048484604051610ae392919061162e565b9081526040805160209281900383018120608082018352546001600160701b0381168252600160701b81046001600160401b03908116948301859052600160b01b82041692820192909252600160f01b90910461ffff1660608201529150421015610b975760405162461bcd60e51b815260206004820152603060248201526000805160206118cf83398151915260448201526f081b9bdd081cdd185c9d1959081e595d60821b60648201526084016104dc565b60408101516001600160401b03161580610bbe575080604001516001600160401b03164211155b610c0f5760405162461bcd60e51b815260206004820152602e60248201526000805160206118cf83398151915260448201526d08185b1c9958591e48195b99195960921b60648201526084016104dc565b80516001600160701b0390811614610d015780516001600160701b0316821115610ca15760405162461bcd60e51b815260206004820152603760248201527f4e4654436f6c6c656374696f6e466163746f72793a206d696e74207175616e7460448201527f6974792065786365656420617661696c6162696c69747900000000000000000060648201526084016104dc565b8160048585604051610cb492919061162e565b9081526040519081900360200190208054600090610cdc9084906001600160701b0316611829565b92506101000a8154816001600160701b0302191690836001600160701b031602179055505b606081015161ffff1615610dfd57806060015161ffff168260058686604051610d2b92919061162e565b90815260408051602092819003830190203360009081529252902054610d5191906117f2565b1115610db95760405162461bcd60e51b815260206004820152603160248201527f4e4654436f6c6c656374696f6e466163746f72793a206578636565646564206160448201527019191c995cdcc81b5a5b9d081b1a5b5a5d607a1b60648201526084016104dc565b8160058585604051610dcc92919061162e565b9081526040805160209281900383019020336000908152925281208054909190610df79084906117f2565b90915550505b6040805160038082526080820190925260009160208201606080368337019050509050600181600081518110610e3557610e356118a2565b602002602001018181525050600281600181518110610e5657610e566118a2565b6020026020010181815250506103e981600281518110610e7857610e786118a2565b60209081029190910101526040805160038082526080820190925260009181602001602082028036833701905050600154909150610ebf906001600160801b03168561180a565b81600081518110610ed257610ed26118a2565b6020908102919091010152600154610efa90600160801b90046001600160801b03168561180a565b81600181518110610f0d57610f0d6118a2565b6020026020010181815250508381600281518110610f2d57610f2d6118a2565b6020908102919091010152604051631ac8311560e21b81526001600160a01b037f00000000000000000000000000000000000000000000000000000000000000001690636b20c45490610f889033908690869060040161163e565b600060405180830381600087803b158015610fa257600080fd5b505af1158015610fb6573d6000803e3d6000fd5b505060405163cd2ac3f160e01b81526001600160a01b037f000000000000000000000000000000000000000000000000000000000000000016925063cd2ac3f1915061100f9033908a908a908a9060009060040161167e565b600060405180830381600087803b15801561102957600080fd5b505af115801561103d573d6000803e3d6000fd5b50505050505050505050565b6002818154811061105957600080fd5b90600052602060002001600091509050805461107490611851565b80601f01602080910402602001604051908101604052809291908181526020018280546110a090611851565b80156110ed5780601f106110c2576101008083540402835291602001916110ed565b820191906000526020600020905b8154815290600101906020018083116110d057829003601f168201915b505050505081565b6000546001600160a01b0316331461111f5760405162461bcd60e51b81526004016104dc906117bd565b6001600160a01b0381166111845760405162461bcd60e51b815260206004820152602660248201527f4f776e61626c653a206e6577206f776e657220697320746865207a65726f206160448201526564647265737360d01b60648201526084016104dc565b61118d81611190565b50565b600080546001600160a01b038381166001600160a01b0319831681178455604051919092169283917f8be0079c531659141344cd1fd0a4f28419497f9722a3daafe3b4186f6b6457e09190a35050565b8280546111ec90611851565b90600052602060002090601f01602090048101928261120e5760008555611254565b82601f106112275782800160ff19823516178555611254565b82800160010185558215611254579182015b82811115611254578235825591602001919060010190611239565b50611260929150611264565b5090565b5b808211156112605760008155600101611265565b600081356001600160a81b038116811461129257600080fd5b6001600160a01b031692915050565b60008083601f8401126112b357600080fd5b5081356001600160401b038111156112ca57600080fd5b6020830191508360208285010111156112e257600080fd5b9250929050565b600082601f8301126112fa57600080fd5b81356001600160401b0380821115611314576113146118b8565b604051601f8301601f19908116603f0116810190828211818310171561133c5761133c6118b8565b8160405283815286602085880101111561135557600080fd5b836020870160208301376000602085830101528094505050505092915050565b80356001600160801b038116811461138c57600080fd5b919050565b80356001600160401b038116811461138c57600080fd5b6000602082840312156113ba57600080fd5b6113c382611279565b9392505050565b60008060008060008060a087890312156113e357600080fd5b86356001600160401b038111156113f957600080fd5b61140589828a016112a1565b90975095505060208701356001600160701b038116811461142557600080fd5b935061143360408801611391565b925061144160608801611391565b9150608087013561ffff8116811461145857600080fd5b809150509295509295509295565b60008060006040848603121561147b57600080fd5b83356001600160401b0381111561149157600080fd5b61149d868287016112a1565b909790965060209590950135949350505050565b6000602082840312156114c357600080fd5b81356001600160401b038111156114d957600080fd5b6114e5848285016112e9565b949350505050565b6000806040838503121561150057600080fd5b82356001600160401b0381111561151657600080fd5b611522858286016112e9565b92505061153160208401611279565b90509250929050565b6000806040838503121561154d57600080fd5b61155683611375565b915061153160208401611375565b60006020828403121561157657600080fd5b5035919050565b600081518084526020808501945080840160005b838110156115ad57815187529582019590820190600101611591565b509495945050505050565b81835281816020850137506000828201602090810191909152601f909101601f19169091010190565b6000815180845260005b81811015611607576020818501810151868301820152016115eb565b81811115611619576000602083870101525b50601f01601f19169290920160200192915050565b8183823760009101908152919050565b6001600160a01b03841681526060602082018190526000906116629083018561157d565b8281036040840152611674818561157d565b9695505050505050565b6001600160a01b03861681526080602082018190526000906116a390830186886115b8565b6040830194909452509015156060909101529392505050565b6000602080830181845280855180835260408601915060408160051b870101925083870160005b8281101561171157603f198886030184526116ff8583516115e1565b945092850192908501906001016116e3565b5092979650505050505050565b60a08152600061173260a08301888a6115b8565b6001600160701b03969096166020830152506001600160401b03938416604082015291909216606082015261ffff90911660809091015292915050565b6020815260006113c360208301846115e1565b6020808252602d908201526000805160206118cf83398151915260408201526c081bd9880c08195b195b595b9d609a1b606082015260800190565b6020808252818101527f4f776e61626c653a2063616c6c6572206973206e6f7420746865206f776e6572604082015260600190565b600082198211156118055761180561188c565b500190565b60008160001904831182151516156118245761182461188c565b500290565b60006001600160701b03838116908316818110156118495761184961188c565b039392505050565b600181811c9082168061186557607f821691505b6020821081141561188657634e487b7160e01b600052602260045260246000fd5b50919050565b634e487b7160e01b600052601160045260246000fd5b634e487b7160e01b600052603260045260246000fd5b634e487b7160e01b600052604160045260246000fdfe4e4654436f6c6c656374696f6e466163746f72793a20636f6c6c656374696f6ea26474726f6e58221220f96a113161de4076b6d0ece7cd80a163d5bb48c0b37be37958c4d015f54f7b9964736f6c63430008060033",
  "source": "// SPDX-License-Identifier: MIT\r\npragma solidity ^0.8.0;\r\n\r\nimport \"@openzeppelin/contracts/access/Ownable.sol\";\r\nimport \"../SpacePiratesTokens.sol\";\r\nimport \"./SpacePiratesNFT.sol\";\r\n\r\n/**\r\n * @title Space Pirates NFT Collection Factory\r\n * @author @Gr3it, @yuripaoloni (reviewer)\r\n * @notice Create collection settig parameters like start, end, supply\r\n */\r\n\r\ncontract NFTCollectionFactory is Ownable {\r\n    SpacePiratesNFT public immutable nftContract;\r\n    SpacePiratesTokens public immutable tokenContract;\r\n\r\n    uint256 public constant DOUBLOONS = 1;\r\n    uint256 public constant ASTEROIDS = 2;\r\n    uint256 public constant EVOCATION_GEM = 1001;\r\n\r\n    uint128 public doubloonsPrice = 10_000 * 1e18;\r\n    uint128 public asteroidsPrice = 20 * 1e18;\r\n\r\n    struct Collection {\r\n        uint112 available; // type(uint112).max for unlimited supply\r\n        uint64 start; //start of the sale of the collection\r\n        uint64 end; //end of the sale of the collection. 0 for unlimited time collection\r\n        uint16 maxMintPerAddress; // 0 for disabled option\r\n    }\r\n    string[] public availableCollections;\r\n\r\n    mapping(string => bool) public exist;\r\n    mapping(string => Collection) public collections;\r\n    mapping(string => mapping(address => uint256)) public nbrOfCollectionMinted; //collection -> address -> number minted\r\n\r\n    event CreateCollection(\r\n        string name,\r\n        uint112 available,\r\n        uint64 start,\r\n        uint64 end,\r\n        uint16 maxMintPerAddress\r\n    );\r\n    event EditCollection(\r\n        string indexed name,\r\n        uint112 available,\r\n        uint64 start,\r\n        uint64 end,\r\n        uint16 maxMintPerAddress\r\n    );\r\n    event SetPrice(uint128 newDoubloonsPrice, uint128 newAsteroidsPrice);\r\n\r\n    constructor(SpacePiratesTokens _tokenContract, SpacePiratesNFT _nftContract)\r\n    {\r\n        tokenContract = _tokenContract;\r\n        nftContract = _nftContract;\r\n    }\r\n\r\n    function getCollectionsList() external view returns (string[] memory) {\r\n        return availableCollections;\r\n    }\r\n\r\n    function mintCollectionItem(string calldata name, uint256 quantity)\r\n        external\r\n    {\r\n        require(quantity > 0, \"NFTCollectionFactory: can't mint 0 NFT\");\r\n        require(\r\n            exist[name],\r\n            \"NFTCollectionFactory: the collection does not exist\"\r\n        );\r\n        Collection memory collection = collections[name];\r\n        require(\r\n            block.timestamp >= collection.start,\r\n            \"NFTCollectionFactory: collection not started yet\"\r\n        );\r\n        require(\r\n            collection.end == 0 || block.timestamp <= collection.end,\r\n            \"NFTCollectionFactory: collection already ended\"\r\n        );\r\n        if (collection.available != type(uint112).max) {\r\n            require(\r\n                quantity <= collection.available,\r\n                \"NFTCollectionFactory: mint quantity exceed availability\"\r\n            );\r\n            collections[name].available -= uint112(quantity);\r\n        }\r\n        if (collection.maxMintPerAddress != 0) {\r\n            require(\r\n                nbrOfCollectionMinted[name][msg.sender] + quantity <=\r\n                    collection.maxMintPerAddress,\r\n                \"NFTCollectionFactory: exceeded address mint limit\"\r\n            );\r\n            nbrOfCollectionMinted[name][msg.sender] += quantity;\r\n        }\r\n\r\n        uint256[] memory ids = new uint256[](3);\r\n        ids[0] = DOUBLOONS;\r\n        ids[1] = ASTEROIDS;\r\n        ids[2] = EVOCATION_GEM;\r\n\r\n        uint256[] memory amounts = new uint256[](3);\r\n        amounts[0] = quantity * doubloonsPrice;\r\n        amounts[1] = quantity * asteroidsPrice;\r\n        amounts[2] = quantity;\r\n\r\n        tokenContract.burnBatch(msg.sender, ids, amounts);\r\n        nftContract.mint(msg.sender, name, quantity, false);\r\n    }\r\n\r\n    function createCollection(\r\n        string calldata name,\r\n        uint112 available,\r\n        uint64 start,\r\n        uint64 end,\r\n        uint16 maxMintPerAddress\r\n    ) external onlyOwner {\r\n        require(!exist[name], \"NFTCollectionFactory: collection already exist\");\r\n        require(\r\n            available != 0,\r\n            \"NFTCollectionFactory: collection of 0 element\"\r\n        );\r\n        exist[name] = true;\r\n        availableCollections.push(name);\r\n        collections[name] = Collection(\r\n            available,\r\n            start,\r\n            end,\r\n            maxMintPerAddress\r\n        );\r\n        emit CreateCollection(name, available, start, end, maxMintPerAddress);\r\n    }\r\n\r\n    function editCollection(\r\n        string calldata name,\r\n        uint112 available,\r\n        uint64 start,\r\n        uint64 end,\r\n        uint16 maxMintPerAddress\r\n    ) external onlyOwner {\r\n        require(exist[name], \"NFTCollectionFactory: collection does not exist\");\r\n        require(\r\n            available != 0,\r\n            \"NFTCollectionFactory: collection of 0 element\"\r\n        );\r\n        collections[name] = Collection(\r\n            available,\r\n            start,\r\n            end,\r\n            maxMintPerAddress\r\n        );\r\n        emit EditCollection(name, available, start, end, maxMintPerAddress);\r\n    }\r\n\r\n    function setPrice(uint128 newDoubloonsPrice, uint128 newAsteroidsPrice)\r\n        external\r\n        onlyOwner\r\n    {\r\n        doubloonsPrice = newDoubloonsPrice;\r\n        asteroidsPrice = newAsteroidsPrice;\r\n        emit SetPrice(newDoubloonsPrice, newAsteroidsPrice);\r\n    }\r\n}\r\n",
  "sourcePath": "C:/Users/emanu/space-pirates-contracts/contracts/NFT/NFTCollectionFactory.sol",
  "compiler": {
    "name": "solc",
    "version": "0.8.6+commit.0e36fba0.mod.Emscripten.clang"
  },
  "schemaVersion": "2.0.1",
  "updatedAt": "2022-08-01T20:36:28.082Z"
}