{
  "contractName": "NFTStarterBanner",
  "abi": [
    {
      "inputs": [
        {
          "internalType": "contract SpacePiratesTokens",
          "name": "_tokenContract",
          "type": "address"
        },
        {
          "internalType": "contract SpacePiratesNFT",
          "name": "_nftContract",
          "type": "address"
        }
      ],
      "stateMutability": "nonpayable",
      "type": "constructor"
    },
    {
      "anonymous": false,
      "inputs": [
        {
          "indexed": true,
          "internalType": "address",
          "name": "previousOwner",
          "type": "address"
        },
        {
          "indexed": true,
          "internalType": "address",
          "name": "newOwner",
          "type": "address"
        }
      ],
      "name": "OwnershipTransferred",
      "type": "event"
    },
    {
      "inputs": [
        {
          "internalType": "uint256",
          "name": "quantity",
          "type": "uint256"
        }
      ],
      "name": "mintCollectionItem",
      "outputs": [],
      "stateMutability": "nonpayable",
      "type": "function"
    },
    {
      "inputs": [],
      "name": "nftContract",
      "outputs": [
        {
          "internalType": "contract SpacePiratesNFT",
          "name": "",
          "type": "address"
        }
      ],
      "stateMutability": "view",
      "type": "function"
    },
    {
      "inputs": [],
      "name": "owner",
      "outputs": [
        {
          "internalType": "address",
          "name": "",
          "type": "address"
        }
      ],
      "stateMutability": "view",
      "type": "function"
    },
    {
      "inputs": [],
      "name": "renounceOwnership",
      "outputs": [],
      "stateMutability": "nonpayable",
      "type": "function"
    },
    {
      "inputs": [],
      "name": "starterGemId",
      "outputs": [
        {
          "internalType": "uint256",
          "name": "",
          "type": "uint256"
        }
      ],
      "stateMutability": "view",
      "type": "function"
    },
    {
      "inputs": [],
      "name": "tokenContract",
      "outputs": [
        {
          "internalType": "contract SpacePiratesTokens",
          "name": "",
          "type": "address"
        }
      ],
      "stateMutability": "view",
      "type": "function"
    },
    {
      "inputs": [
        {
          "internalType": "address",
          "name": "newOwner",
          "type": "address"
        }
      ],
      "name": "transferOwnership",
      "outputs": [],
      "stateMutability": "nonpayable",
      "type": "function"
    }
  ],
  "bytecode": "0x60c060405234801561001057600080fd5b50d3801561001d57600080fd5b50d2801561002a57600080fd5b5060405161065d38038061065d833981016040819052610049916100c0565b61005233610070565b6001600160601b0319606092831b811660a052911b1660805261011e565b600080546001600160a01b038381166001600160a01b0319831681178455604051919092169283917f8be0079c531659141344cd1fd0a4f28419497f9722a3daafe3b4186f6b6457e09190a35050565b600080604083850312156100d357600080fd5b82516100de81610106565b60208401516001600160a01b039182169350906100fa82610106565b92959216935090915050565b6001600160a81b038116811461011b57600080fd5b50565b60805160601c60a05160601c6105076101566000396000818160bd01526101e701526000818161012a015261029501526105076000f3fe608060405234801561001057600080fd5b50d3801561001d57600080fd5b50d2801561002a57600080fd5b50600436106100975760003560e01c8063715018a611610075578063715018a61461010c5780638da5cb5b14610114578063d56d229d14610125578063f2fde38b1461014c57600080fd5b806320a83b5d1461009c57806355a373d6146100b85780636c60d73f146100f7575b600080fd5b6100a56103e881565b6040519081526020015b60405180910390f35b6100df7f000000000000000000000000000000000000000000000000000000000000000081565b6040516001600160a01b0390911681526020016100af565b61010a6101053660046104b8565b61015f565b005b61010a6102fe565b6000546001600160a01b03166100df565b6100df7f000000000000000000000000000000000000000000000000000000000000000081565b61010a61015a36600461047f565b610364565b600081116101c35760405162461bcd60e51b815260206004820152602660248201527f4e4654436f6c6c656374696f6e466163746f72793a2063616e2774206d696e74604482015265080c0813919560d21b60648201526084015b60405180910390fd5b604051637a94c56560e11b81523360048201526103e86024820152604481018290527f00000000000000000000000000000000000000000000000000000000000000006001600160a01b03169063f5298aca90606401600060405180830381600087803b15801561023357600080fd5b505af1158015610247573d6000803e3d6000fd5b505060405163cd2ac3f160e01b815233600482015260806024820152601260848201527129ba30b93a32b91031b7b63632b1ba34b7b760711b60a482015260448101849052600160648201527f00000000000000000000000000000000000000000000000000000000000000006001600160a01b0316925063cd2ac3f1915060c401600060405180830381600087803b1580156102e357600080fd5b505af11580156102f7573d6000803e3d6000fd5b5050505050565b6000546001600160a01b031633146103585760405162461bcd60e51b815260206004820181905260248201527f4f776e61626c653a2063616c6c6572206973206e6f7420746865206f776e657260448201526064016101ba565b610362600061042f565b565b6000546001600160a01b031633146103be5760405162461bcd60e51b815260206004820181905260248201527f4f776e61626c653a2063616c6c6572206973206e6f7420746865206f776e657260448201526064016101ba565b6001600160a01b0381166104235760405162461bcd60e51b815260206004820152602660248201527f4f776e61626c653a206e6577206f776e657220697320746865207a65726f206160448201526564647265737360d01b60648201526084016101ba565b61042c8161042f565b50565b600080546001600160a01b038381166001600160a01b0319831681178455604051919092169283917f8be0079c531659141344cd1fd0a4f28419497f9722a3daafe3b4186f6b6457e09190a35050565b60006020828403121561049157600080fd5b81356001600160a81b03811681146104a857600080fd5b6001600160a01b03169392505050565b6000602082840312156104ca57600080fd5b503591905056fea26474726f6e58221220e72e27b5a0fa6d1cb870f586a4a5b81f022e621eaf219a3ad3a9b0a40e2bcdf664736f6c63430008060033",
  "source": "// SPDX-License-Identifier: MIT\r\npragma solidity ^0.8.0;\r\n\r\nimport \"@openzeppelin/contracts/access/Ownable.sol\";\r\nimport \"../SpacePiratesTokens.sol\";\r\nimport \"./SpacePiratesNFT.sol\";\r\n\r\n/**\r\n * @title Space Pirates NFT Starter Collection\r\n * @author @Gr3it, @yuripaoloni (reviewer)\r\n * @notice NFT Starter collection\r\n */\r\n\r\ncontract NFTStarterBanner is Ownable {\r\n    SpacePiratesNFT public immutable nftContract;\r\n    SpacePiratesTokens public immutable tokenContract;\r\n\r\n    uint256 public constant starterGemId = 1000;\r\n\r\n    constructor(SpacePiratesTokens _tokenContract, SpacePiratesNFT _nftContract)\r\n    {\r\n        tokenContract = _tokenContract;\r\n        nftContract = _nftContract;\r\n    }\r\n\r\n    function mintCollectionItem(uint256 quantity) external {\r\n        require(quantity > 0, \"NFTCollectionFactory: can't mint 0 NFT\");\r\n        tokenContract.burn(msg.sender, starterGemId, quantity);\r\n        nftContract.mint(msg.sender, \"Starter collection\", quantity, true);\r\n    }\r\n}\r\n",
  "sourcePath": "C:/Users/emanu/space-pirates-contracts/contracts/NFT/NFTStarterBanner.sol",
  "compiler": {
    "name": "solc",
    "version": "0.8.6+commit.0e36fba0.mod.Emscripten.clang"
  },
  "schemaVersion": "2.0.1",
  "updatedAt": "2022-08-01T20:36:28.084Z"
}