{
  "contractName": "SpacePiratesPair",
  "abi": [
    {
      "inputs": [],
      "stateMutability": "nonpayable",
      "type": "constructor"
    },
    {
      "anonymous": false,
      "inputs": [
        {
          "indexed": true,
          "internalType": "address",
          "name": "owner",
          "type": "address"
        },
        {
          "indexed": true,
          "internalType": "address",
          "name": "spender",
          "type": "address"
        },
        {
          "indexed": false,
          "internalType": "uint256",
          "name": "value",
          "type": "uint256"
        }
      ],
      "name": "Approval",
      "type": "event"
    },
    {
      "anonymous": false,
      "inputs": [
        {
          "indexed": true,
          "internalType": "address",
          "name": "sender",
          "type": "address"
        },
        {
          "indexed": false,
          "internalType": "uint256",
          "name": "amount0",
          "type": "uint256"
        },
        {
          "indexed": false,
          "internalType": "uint256",
          "name": "amount1",
          "type": "uint256"
        },
        {
          "indexed": true,
          "internalType": "address",
          "name": "to",
          "type": "address"
        }
      ],
      "name": "Burn",
      "type": "event"
    },
    {
      "anonymous": false,
      "inputs": [
        {
          "indexed": true,
          "internalType": "address",
          "name": "sender",
          "type": "address"
        },
        {
          "indexed": false,
          "internalType": "uint256",
          "name": "amount0",
          "type": "uint256"
        },
        {
          "indexed": false,
          "internalType": "uint256",
          "name": "amount1",
          "type": "uint256"
        }
      ],
      "name": "Mint",
      "type": "event"
    },
    {
      "anonymous": false,
      "inputs": [
        {
          "indexed": true,
          "internalType": "address",
          "name": "sender",
          "type": "address"
        },
        {
          "indexed": false,
          "internalType": "uint256",
          "name": "amount0In",
          "type": "uint256"
        },
        {
          "indexed": false,
          "internalType": "uint256",
          "name": "amount1In",
          "type": "uint256"
        },
        {
          "indexed": false,
          "internalType": "uint256",
          "name": "amount0Out",
          "type": "uint256"
        },
        {
          "indexed": false,
          "internalType": "uint256",
          "name": "amount1Out",
          "type": "uint256"
        },
        {
          "indexed": true,
          "internalType": "address",
          "name": "to",
          "type": "address"
        }
      ],
      "name": "Swap",
      "type": "event"
    },
    {
      "anonymous": false,
      "inputs": [
        {
          "indexed": false,
          "internalType": "uint112",
          "name": "reserve0",
          "type": "uint112"
        },
        {
          "indexed": false,
          "internalType": "uint112",
          "name": "reserve1",
          "type": "uint112"
        }
      ],
      "name": "Sync",
      "type": "event"
    },
    {
      "anonymous": false,
      "inputs": [
        {
          "indexed": true,
          "internalType": "address",
          "name": "from",
          "type": "address"
        },
        {
          "indexed": true,
          "internalType": "address",
          "name": "to",
          "type": "address"
        },
        {
          "indexed": false,
          "internalType": "uint256",
          "name": "value",
          "type": "uint256"
        }
      ],
      "name": "Transfer",
      "type": "event"
    },
    {
      "inputs": [],
      "name": "MINIMUM_LIQUIDITY",
      "outputs": [
        {
          "internalType": "uint256",
          "name": "",
          "type": "uint256"
        }
      ],
      "stateMutability": "view",
      "type": "function"
    },
    {
      "inputs": [
        {
          "internalType": "address",
          "name": "",
          "type": "address"
        },
        {
          "internalType": "address",
          "name": "",
          "type": "address"
        }
      ],
      "name": "allowance",
      "outputs": [
        {
          "internalType": "uint256",
          "name": "",
          "type": "uint256"
        }
      ],
      "stateMutability": "view",
      "type": "function"
    },
    {
      "inputs": [
        {
          "internalType": "address",
          "name": "spender",
          "type": "address"
        },
        {
          "internalType": "uint256",
          "name": "value",
          "type": "uint256"
        }
      ],
      "name": "approve",
      "outputs": [
        {
          "internalType": "bool",
          "name": "",
          "type": "bool"
        }
      ],
      "stateMutability": "nonpayable",
      "type": "function"
    },
    {
      "inputs": [
        {
          "internalType": "address",
          "name": "",
          "type": "address"
        }
      ],
      "name": "balanceOf",
      "outputs": [
        {
          "internalType": "uint256",
          "name": "",
          "type": "uint256"
        }
      ],
      "stateMutability": "view",
      "type": "function"
    },
    {
      "inputs": [
        {
          "internalType": "address",
          "name": "to",
          "type": "address"
        }
      ],
      "name": "burn",
      "outputs": [
        {
          "internalType": "uint256",
          "name": "amount0",
          "type": "uint256"
        },
        {
          "internalType": "uint256",
          "name": "amount1",
          "type": "uint256"
        }
      ],
      "stateMutability": "nonpayable",
      "type": "function"
    },
    {
      "inputs": [],
      "name": "decimals",
      "outputs": [
        {
          "internalType": "uint8",
          "name": "",
          "type": "uint8"
        }
      ],
      "stateMutability": "view",
      "type": "function"
    },
    {
      "inputs": [],
      "name": "factory",
      "outputs": [
        {
          "internalType": "address",
          "name": "",
          "type": "address"
        }
      ],
      "stateMutability": "view",
      "type": "function"
    },
    {
      "inputs": [],
      "name": "getReserves",
      "outputs": [
        {
          "internalType": "uint112",
          "name": "_reserve0",
          "type": "uint112"
        },
        {
          "internalType": "uint112",
          "name": "_reserve1",
          "type": "uint112"
        },
        {
          "internalType": "uint32",
          "name": "_blockTimestampLast",
          "type": "uint32"
        }
      ],
      "stateMutability": "view",
      "type": "function"
    },
    {
      "inputs": [],
      "name": "getTokenIds",
      "outputs": [
        {
          "internalType": "uint128",
          "name": "_token0",
          "type": "uint128"
        },
        {
          "internalType": "uint128",
          "name": "_token1",
          "type": "uint128"
        }
      ],
      "stateMutability": "view",
      "type": "function"
    },
    {
      "inputs": [
        {
          "internalType": "uint128",
          "name": "_token0",
          "type": "uint128"
        },
        {
          "internalType": "uint128",
          "name": "_token1",
          "type": "uint128"
        },
        {
          "internalType": "address",
          "name": "_tokenContract",
          "type": "address"
        }
      ],
      "name": "initialize",
      "outputs": [],
      "stateMutability": "nonpayable",
      "type": "function"
    },
    {
      "inputs": [],
      "name": "kLast",
      "outputs": [
        {
          "internalType": "uint256",
          "name": "",
          "type": "uint256"
        }
      ],
      "stateMutability": "view",
      "type": "function"
    },
    {
      "inputs": [
        {
          "internalType": "address",
          "name": "to",
          "type": "address"
        }
      ],
      "name": "mint",
      "outputs": [
        {
          "internalType": "uint256",
          "name": "liquidity",
          "type": "uint256"
        }
      ],
      "stateMutability": "nonpayable",
      "type": "function"
    },
    {
      "inputs": [],
      "name": "name",
      "outputs": [
        {
          "internalType": "string",
          "name": "",
          "type": "string"
        }
      ],
      "stateMutability": "view",
      "type": "function"
    },
    {
      "inputs": [
        {
          "internalType": "address",
          "name": "",
          "type": "address"
        },
        {
          "internalType": "address",
          "name": "",
          "type": "address"
        },
        {
          "internalType": "uint256[]",
          "name": "",
          "type": "uint256[]"
        },
        {
          "internalType": "uint256[]",
          "name": "",
          "type": "uint256[]"
        },
        {
          "internalType": "bytes",
          "name": "",
          "type": "bytes"
        }
      ],
      "name": "onERC1155BatchReceived",
      "outputs": [
        {
          "internalType": "bytes4",
          "name": "",
          "type": "bytes4"
        }
      ],
      "stateMutability": "nonpayable",
      "type": "function"
    },
    {
      "inputs": [
        {
          "internalType": "address",
          "name": "",
          "type": "address"
        },
        {
          "internalType": "address",
          "name": "",
          "type": "address"
        },
        {
          "internalType": "uint256",
          "name": "",
          "type": "uint256"
        },
        {
          "internalType": "uint256",
          "name": "",
          "type": "uint256"
        },
        {
          "internalType": "bytes",
          "name": "",
          "type": "bytes"
        }
      ],
      "name": "onERC1155Received",
      "outputs": [
        {
          "internalType": "bytes4",
          "name": "",
          "type": "bytes4"
        }
      ],
      "stateMutability": "nonpayable",
      "type": "function"
    },
    {
      "inputs": [],
      "name": "price0CumulativeLast",
      "outputs": [
        {
          "internalType": "uint256",
          "name": "",
          "type": "uint256"
        }
      ],
      "stateMutability": "view",
      "type": "function"
    },
    {
      "inputs": [],
      "name": "price1CumulativeLast",
      "outputs": [
        {
          "internalType": "uint256",
          "name": "",
          "type": "uint256"
        }
      ],
      "stateMutability": "view",
      "type": "function"
    },
    {
      "inputs": [
        {
          "internalType": "address",
          "name": "to",
          "type": "address"
        }
      ],
      "name": "skim",
      "outputs": [],
      "stateMutability": "nonpayable",
      "type": "function"
    },
    {
      "inputs": [
        {
          "internalType": "bytes4",
          "name": "interfaceId",
          "type": "bytes4"
        }
      ],
      "name": "supportsInterface",
      "outputs": [
        {
          "internalType": "bool",
          "name": "",
          "type": "bool"
        }
      ],
      "stateMutability": "view",
      "type": "function"
    },
    {
      "inputs": [
        {
          "internalType": "uint256",
          "name": "amount0Out",
          "type": "uint256"
        },
        {
          "internalType": "uint256",
          "name": "amount1Out",
          "type": "uint256"
        },
        {
          "internalType": "address",
          "name": "to",
          "type": "address"
        },
        {
          "internalType": "bytes",
          "name": "data",
          "type": "bytes"
        }
      ],
      "name": "swap",
      "outputs": [],
      "stateMutability": "nonpayable",
      "type": "function"
    },
    {
      "inputs": [],
      "name": "symbol",
      "outputs": [
        {
          "internalType": "string",
          "name": "",
          "type": "string"
        }
      ],
      "stateMutability": "view",
      "type": "function"
    },
    {
      "inputs": [],
      "name": "sync",
      "outputs": [],
      "stateMutability": "nonpayable",
      "type": "function"
    },
    {
      "inputs": [],
      "name": "tokenContract",
      "outputs": [
        {
          "internalType": "address",
          "name": "",
          "type": "address"
        }
      ],
      "stateMutability": "view",
      "type": "function"
    },
    {
      "inputs": [],
      "name": "totalSupply",
      "outputs": [
        {
          "internalType": "uint256",
          "name": "",
          "type": "uint256"
        }
      ],
      "stateMutability": "view",
      "type": "function"
    },
    {
      "inputs": [
        {
          "internalType": "address",
          "name": "to",
          "type": "address"
        },
        {
          "internalType": "uint256",
          "name": "value",
          "type": "uint256"
        }
      ],
      "name": "transfer",
      "outputs": [
        {
          "internalType": "bool",
          "name": "",
          "type": "bool"
        }
      ],
      "stateMutability": "nonpayable",
      "type": "function"
    },
    {
      "inputs": [
        {
          "internalType": "address",
          "name": "from",
          "type": "address"
        },
        {
          "internalType": "address",
          "name": "to",
          "type": "address"
        },
        {
          "internalType": "uint256",
          "name": "value",
          "type": "uint256"
        }
      ],
      "name": "transferFrom",
      "outputs": [
        {
          "internalType": "bool",
          "name": "",
          "type": "bool"
        }
      ],
      "stateMutability": "nonpayable",
      "type": "function"
    }
  ],
  "bytecode": "0x60a0604052600160095534801561001557600080fd5b50d3801561002257600080fd5b50d2801561002f57600080fd5b5033606081901b6080526121ad61005f6000396000818161042501528181610a74015261145b01526121ad6000f3fe608060405234801561001057600080fd5b50d3801561001d57600080fd5b50d2801561002a57600080fd5b50600436106101a85760003560e01c80636a627842116100f8578063ba9a7a56116100b1578063c45a01551161008b578063c45a015514610420578063dd62ed3e14610447578063f23a6e6114610472578063fff6cae91461049157600080fd5b8063ba9a7a56146103cc578063bc197c81146103d5578063bc25cf771461040d57600080fd5b80636a6278421461033157806370a08231146103445780637464fc3d1461036457806389afcb441461036d57806395d89b4114610395578063a9059cbb146103b957600080fd5b806323b872dd116101655780635909c0d51161013f5780635909c0d5146102e25780635a3d5493146102eb57806364dfbc7e146102f457806367f718a91461030757600080fd5b806323b872dd1461028a578063313ce5671461029d57806355a373d6146102b757600080fd5b806301ffc9a7146101ad578063022c0d9f146101d557806306fdde03146101ea5780630902f1ac1461022c578063095ea7b31461026057806318160ddd14610273575b600080fd5b6101c06101bb366004611cbe565b610499565b60405190151581526020015b60405180910390f35b6101e86101e3366004611d39565b6104d0565b005b61021f6040518060400160405280601681526020017529b830b1b2902834b930ba32b9902628102a37b5b2b760511b81525081565b6040516101cc9190611f5b565b6102346109d9565b604080516001600160701b03948516815293909216602084015263ffffffff16908201526060016101cc565b6101c061026e366004611bf1565b610a03565b61027c60005481565b6040519081526020016101cc565b6101c0610298366004611b2d565b610a19565b6102a5601281565b60405160ff90911681526020016101cc565b6003546102ca906001600160a01b031681565b6040516001600160a01b0390911681526020016101cc565b61027c60065481565b61027c60075481565b6101e8610302366004611ce8565b610a69565b600454604080516001600160801b038084168252600160801b9093049092166020830152016101cc565b61027c61033f3660046119e2565b610b16565b61027c6103523660046119e2565b60016020526000908152604090205481565b61027c60085481565b61038061037b3660046119e2565b610d30565b604080519283526020830191909152016101cc565b61021f60405180604001604052806005815260200164053502d4c560dc1b81525081565b6101c06103c7366004611bf1565b610f54565b61027c6103e881565b6103f46103e3366004611a72565b63bc197c8160e01b95945050505050565b6040516001600160e01b031990911681526020016101cc565b6101e861041b3660046119e2565b610f61565b6102ca7f000000000000000000000000000000000000000000000000000000000000000081565b61027c610455366004611a2c565b600260209081526000928352604080842090915290825290205481565b6103f4610480366004611b7b565b63f23a6e6160e01b95945050505050565b6101e8611010565b60006001600160e01b03198216630271189760e51b14806104ca57506301ffc9a760e01b6001600160e01b03198316145b92915050565b6009546001146104fb5760405162461bcd60e51b81526004016104f290611fb0565b60405180910390fd5b60006009558415158061050e5750600084115b61056f5760405162461bcd60e51b815260206004820152602c60248201527f537061636550697261746573506169723a20494e53554646494349454e545f4f60448201526b155514155517d05353d5539560a21b60648201526084016104f2565b60008061057a6109d9565b5091509150816001600160701b03168710801561059f5750806001600160701b031686105b6105fc5760405162461bcd60e51b815260206004820152602860248201527f537061636550697261746573506169723a20494e53554646494349454e545f4c604482015267495155494449545960c01b60648201526084016104f2565b6000806000806106206004546001600160801b0380821692600160801b9092041690565b90925090508a156106a557600360009054906101000a90046001600160a01b03166001600160a01b031663f242432a308b858f6040518563ffffffff1660e01b81526004016106729493929190611e6e565b600060405180830381600087803b15801561068c57600080fd5b505af11580156106a0573d6000803e3d6000fd5b505050505b891561072557600360009054906101000a90046001600160a01b03166001600160a01b031663f242432a308b848e6040518563ffffffff1660e01b81526004016106f29493929190611e6e565b600060405180830381600087803b15801561070c57600080fd5b505af1158015610720573d6000803e3d6000fd5b505050505b86156107925760405163233c1b2160e11b81526001600160a01b038a169063467836429061075f9033908f908f908e908e90600401611eaf565b600060405180830381600087803b15801561077957600080fd5b505af115801561078d573d6000803e3d6000fd5b505050505b6107af30836001600160801b0316836001600160801b031661108f565b9094509250600091506107cd90508a6001600160701b0387166120dc565b83116107da5760006107f7565b6107ed8a6001600160701b0387166120dc565b6107f790846120dc565b9050600061080e8a6001600160701b0387166120dc565b831161081b576000610838565b61082e8a6001600160701b0387166120dc565b61083890846120dc565b905060008211806108495750600081115b6108a95760405162461bcd60e51b815260206004820152602b60248201527f537061636550697261746573506169723a20494e53554646494349454e545f4960448201526a1394155517d05353d5539560aa1b60648201526084016104f2565b60006108b68360036120bd565b6108c2866103e86120bd565b6108cc91906120dc565b905060006108db8360036120bd565b6108e7866103e86120bd565b6108f191906120dc565b90506109096001600160701b03808916908a166120bd565b61091690620f42406120bd565b61092082846120bd565b10156109645760405162461bcd60e51b8152602060048201526013602482015272537061636550697261746573506169723a204b60681b60448201526064016104f2565b505061097284848888611191565b60408051838152602081018390529081018c9052606081018b90526001600160a01b038a169033907fd78ad95fa46c994b6551d0da85fc275fe613ce37657fb8d5e3d130840159d8229060800160405180910390a350506001600955505050505050505050565b6005546001600160701b0380821692600160701b830490911691600160e01b900463ffffffff1690565b6000610a10338484611353565b50600192915050565b6001600160a01b0383166000908152600260209081526040808320338452909152812080548391908390610a4e9084906120dc565b90915550610a5f90508484846113b5565b5060019392505050565b336001600160a01b037f00000000000000000000000000000000000000000000000000000000000000001614610ae15760405162461bcd60e51b815260206004820152601b60248201527f537061636550697261746573506169723a20464f5242494444454e000000000060448201526064016104f2565b600380546001600160a01b0319166001600160a01b038316179055506001600160801b03908116600160801b02911617600455565b6000600954600114610b3a5760405162461bcd60e51b81526004016104f290611fb0565b6000600981905580610b4a6109d9565b5060045491935091506000908190610b779030906001600160801b0380821691600160801b90041661108f565b90925090506000610b916001600160701b038616846120dc565b90506000610ba86001600160701b038616846120dc565b90506000610bb68787611456565b60005490915080610bf4576103e8610bd6610bd185876120bd565b6115af565b610be091906120dc565b9850610bef60006103e861161f565b610c3b565b610c386001600160701b038916610c0b83876120bd565b610c15919061207a565b6001600160701b038916610c2984876120bd565b610c33919061207a565b6116a8565b98505b60008911610ca35760405162461bcd60e51b815260206004820152602f60248201527f537061636550697261746573506169723a20494e53554646494349454e545f4c60448201526e125455525112551657d35253951151608a1b60648201526084016104f2565b610cad8a8a61161f565b610cb986868a8a611191565b8115610ce257600554610cde906001600160701b03600160701b8204811691166120bd565b6008555b604080518581526020810185905233917f4c209b5fc8ad50758f13e2e1088ba56a560dff690a1c6fef26394f4c03821c4f910160405180910390a25050600160095550949695505050505050565b600080600954600114610d555760405162461bcd60e51b81526004016104f290611fb0565b6000600981905580610d656109d9565b5091509150600080610d8b6004546001600160801b0380821692600160801b9092041690565b91509150600080610daf30856001600160801b0316856001600160801b031661108f565b30600090815260016020526040812054929450909250610dcf8888611456565b60005490915080610de086856120bd565b610dea919061207a565b9a5080610df785856120bd565b610e01919061207a565b995060008b118015610e13575060008a115b610e775760405162461bcd60e51b815260206004820152602f60248201527f537061636550697261746573506169723a20494e53554646494349454e545f4c60448201526e125455525112551657d09554939151608a1b60648201526084016104f2565b610e8130846116c0565b610ea1308d896001600160801b0316896001600160801b03168f8f611743565b610ebe30886001600160801b0316886001600160801b031661108f565b9095509350610ecf85858b8b611191565b8115610ef857600554610ef4906001600160701b03600160701b8204811691166120bd565b6008555b604080518c8152602081018c90526001600160a01b038e169133917fdccd412f0b1252819cb1fd330b93224ca42612892bb3f4f789976e6d81936496910160405180910390a35050505050505050506001600981905550915091565b6000610a103384846113b5565b600954600114610f835760405162461bcd60e51b81526004016104f290611fb0565b600060098190556004546001600160801b0380821692600160801b909204169080610faf30858561108f565b600554919350915061100490309087906001600160801b038089169190881690610fe2906001600160701b0316886120dc565b600554610fff90600160701b90046001600160701b0316886120dc565b611743565b50506001600955505050565b6009546001146110325760405162461bcd60e51b81526004016104f290611fb0565b60006009819055600454819061105d9030906001600160801b0380821691600160801b90041661108f565b600554919350915061108690839083906001600160701b0380821691600160701b900416611191565b50506001600955565b6040805160028082526060820183526000928392839290916020830190803683375050600354919250506001600160a01b0316634e1273f46110d188806117c3565b6110db8888611850565b6040518363ffffffff1660e01b81526004016110f8929190611efb565b60006040518083038186803b15801561111057600080fd5b505afa158015611124573d6000803e3d6000fd5b505050506040513d6000823e601f3d908101601f1916820160405261114c9190810190611c26565b90508060008151811061116157611161612133565b602002602001015192508060018151811061117e5761117e612133565b6020026020010151915050935093915050565b6001600160701b0384118015906111af57506001600160701b038311155b6111fb5760405162461bcd60e51b815260206004820152601a60248201527f537061636550697261746573506169723a204f564552464c4f5700000000000060448201526064016104f2565b600061120c640100000000426120f3565b60055490915063ffffffff600160e01b909104811682039081161580159061123c57506001600160701b03841615155b801561125057506001600160701b03831615155b156112bb578063ffffffff1661127885611269866118bb565b6001600160e01b0316906118d4565b600680546001600160e01b03929092169290920201905563ffffffff81166112a384611269876118bb565b600780546001600160e01b0392909216929092020190555b6005805463ffffffff8416600160e01b026001600160e01b036001600160701b03898116600160701b9081026001600160e01b03199095168c83161794909417918216831794859055604080519382169282169290921783529290930490911660208201527f1c411e9a96e071241c2f21f7726b17ae89e3cab4c78be50e062b03a9fffbbad1910160405180910390a1505050505050565b6001600160a01b0383811660008181526002602090815260408083209487168084529482529182902085905590518481527f8c5be1e5ebec7d5bd14f71427d1e84f3dd0314c0f7b2291e5b200ac8c7c3b92591015b60405180910390a3505050565b6001600160a01b038316600090815260016020526040812080548392906113dd9084906120dc565b90915550506001600160a01b0382166000908152600160205260408120805483929061140a90849061203c565b92505081905550816001600160a01b0316836001600160a01b03167fddf252ad1be2c89b69c2b068fc378daa952ba7f163c4a11628f55a4df523b3ef836040516113a891815260200190565b6000807f00000000000000000000000000000000000000000000000000000000000000006001600160a01b031663017e7e586040518163ffffffff1660e01b815260040160206040518083038186803b1580156114b257600080fd5b505afa1580156114c6573d6000803e3d6000fd5b505050506040513d601f19601f820116820180604052508101906114ea9190611a0f565b6008546001600160a01b03821615801594509192509061159b578015611596576000611525610bd16001600160701b038088169089166120bd565b90506000611532836115af565b90508082111561159357600061154882846120dc565b60005461155591906120bd565b90506000826115658560056120bd565b61156f919061203c565b9050600061157d828461207a565b9050801561158f5761158f878261161f565b5050505b50505b6115a7565b80156115a75760006008555b505092915050565b6000600382111561161057508060006115c960028361207a565b6115d490600161203c565b90505b8181101561160a579050806002816115ef818661207a565b6115f9919061203c565b611603919061207a565b90506115d7565b50919050565b811561161a575060015b919050565b80600080828254611630919061203c565b90915550506001600160a01b0382166000908152600160205260408120805483929061165d90849061203c565b90915550506040518181526001600160a01b038316906000907fddf252ad1be2c89b69c2b068fc378daa952ba7f163c4a11628f55a4df523b3ef906020015b60405180910390a35050565b60008183106116b757816116b9565b825b9392505050565b6001600160a01b038216600090815260016020526040812080548392906116e89084906120dc565b925050819055508060008082825461170091906120dc565b90915550506040518181526000906001600160a01b038416907fddf252ad1be2c89b69c2b068fc378daa952ba7f163c4a11628f55a4df523b3ef9060200161169c565b6003546001600160a01b0316632eb2c2d687876117608888611850565b61176a8787611850565b6040518563ffffffff1660e01b81526004016117899493929190611e13565b600060405180830381600087803b1580156117a357600080fd5b505af11580156117b7573d6000803e3d6000fd5b50505050505050505050565b6040805160028082526060808301845292600092919060208301908036833701905050905083816000815181106117fc576117fc612133565b60200260200101906001600160a01b031690816001600160a01b031681525050828160018151811061183057611830612133565b6001600160a01b0390921660209283029190910190910152905092915050565b60408051600280825260608083018452926000929190602083019080368337019050509050838160008151811061188957611889612133565b60200260200101818152505082816001815181106118a9576118a9612133565b60209081029190910101529392505050565b60006104ca600160701b6001600160701b03841661208e565b60006116b96001600160701b03831684612054565b600082601f8301126118fa57600080fd5b8135602061190f61190a83612018565b611fe7565b80838252828201915082860187848660051b890101111561192f57600080fd5b60005b8581101561194e57813584529284019290840190600101611932565b5090979650505050505050565b600082601f83011261196c57600080fd5b813567ffffffffffffffff81111561198657611986612149565b611999601f8201601f1916602001611fe7565b8181528460208386010111156119ae57600080fd5b816020850160208301376000918101602001919091529392505050565b80356001600160801b038116811461161a57600080fd5b6000602082840312156119f457600080fd5b81356119ff8161215f565b6001600160a01b03169392505050565b600060208284031215611a2157600080fd5b81516119ff8161215f565b60008060408385031215611a3f57600080fd5b8235611a4a8161215f565b6001600160a01b039081169250602084013590611a668261215f565b92959216935090915050565b600080600080600060a08688031215611a8a57600080fd5b8535611a958161215f565b6001600160a01b039081169550602087013590611ab18261215f565b169350604086013567ffffffffffffffff80821115611acf57600080fd5b611adb89838a016118e9565b94506060880135915080821115611af157600080fd5b611afd89838a016118e9565b93506080880135915080821115611b1357600080fd5b50611b208882890161195b565b9150509295509295909350565b600080600060608486031215611b4257600080fd5b8335611b4d8161215f565b6001600160a01b039081169350602085013590611b698261215f565b93969316945050506040919091013590565b600080600080600060a08688031215611b9357600080fd5b8535611b9e8161215f565b6001600160a01b039081169550602087013590611bba8261215f565b1693506040860135925060608601359150608086013567ffffffffffffffff811115611be557600080fd5b611b208882890161195b565b60008060408385031215611c0457600080fd5b8235611c0f8161215f565b6001600160a01b0316946020939093013593505050565b60006020808385031215611c3957600080fd5b825167ffffffffffffffff811115611c5057600080fd5b8301601f81018513611c6157600080fd5b8051611c6f61190a82612018565b80828252848201915084840188868560051b8701011115611c8f57600080fd5b600094505b83851015611cb2578051835260019490940193918501918501611c94565b50979650505050505050565b600060208284031215611cd057600080fd5b81356001600160e01b0319811681146116b957600080fd5b600080600060608486031215611cfd57600080fd5b611d06846119cb565b9250611d14602085016119cb565b91506040840135611d248161215f565b9295919450506001600160a01b039091169150565b600080600080600060808688031215611d5157600080fd5b85359450602086013593506040860135611d6a8161215f565b6001600160a01b03169250606086013567ffffffffffffffff80821115611d9057600080fd5b818801915088601f830112611da457600080fd5b813581811115611db357600080fd5b896020828501011115611dc557600080fd5b9699959850939650602001949392505050565b600081518084526020808501945080840160005b83811015611e0857815187529582019590820190600101611dec565b509495945050505050565b6001600160a01b0385811682528416602082015260a060408201819052600090611e3f90830185611dd8565b8281036060840152611e518185611dd8565b838103608090940193909352505060008152602001949350505050565b6001600160a01b0394851681529290931660208301526001600160801b03166040820152606081019190915260a06080820181905260009082015260c00190565b60018060a01b038616815284602082015283604082015260806060820152816080820152818360a0830137600081830160a090810191909152601f909201601f19160101949350505050565b604080825283519082018190526000906020906060840190828701845b82811015611f3d5781516001600160a01b031684529284019290840190600101611f18565b50505083810382850152611f518186611dd8565b9695505050505050565b600060208083528351808285015260005b81811015611f8857858101830151858201604001528201611f6c565b81811115611f9a576000604083870101525b50601f01601f1916929092016040019392505050565b60208082526018908201527f537061636550697261746573506169723a204c4f434b45440000000000000000604082015260600190565b604051601f8201601f1916810167ffffffffffffffff8111828210171561201057612010612149565b604052919050565b600067ffffffffffffffff82111561203257612032612149565b5060051b60200190565b6000821982111561204f5761204f612107565b500190565b60006001600160e01b038381168061206e5761206e61211d565b92169190910492915050565b6000826120895761208961211d565b500490565b60006001600160e01b03828116848216811515828404821116156120b4576120b4612107565b02949350505050565b60008160001904831182151516156120d7576120d7612107565b500290565b6000828210156120ee576120ee612107565b500390565b6000826121025761210261211d565b500690565b634e487b7160e01b600052601160045260246000fd5b634e487b7160e01b600052601260045260246000fd5b634e487b7160e01b600052603260045260246000fd5b634e487b7160e01b600052604160045260246000fd5b6001600160a81b038116811461217457600080fd5b5056fea26474726f6e58221220b6ea57feb98dcfc08e74ae16f4ae6817fc5059f28bf93707df39cbe9a1e51ea464736f6c63430008060033",
  "source": "// SPDX-License-Identifier: MIT\r\npragma solidity ^0.8.0;\r\n\r\nimport \"@openzeppelin/contracts/token/ERC1155/IERC1155.sol\";\r\nimport \"@openzeppelin/contracts/token/ERC1155/utils/ERC1155Holder.sol\";\r\nimport \"./SpacePiratesLPToken.sol\";\r\nimport \"./ERC1155Batch.sol\";\r\nimport \"../libraries/UQ112x112.sol\";\r\nimport \"../libraries/Math.sol\";\r\nimport \"../interfaces/ISpacePiratesFactory.sol\";\r\nimport \"../interfaces/ISpacePiratesCallee.sol\";\r\n\r\n/**\r\n * @title Space Pirates Pair Contract\r\n * @author @Gr3it, @yuripaoloni (reviewer), @MatteoLeonesi (reviewer)\r\n * @notice Let swap token if added liquidity\r\n */\r\n\r\n\r\ncontract SpacePiratesPair is SpacePiratesLPToken, ERC1155Batch, ERC1155Holder {\r\n    using UQ112x112 for uint224;\r\n\r\n    uint256 public constant MINIMUM_LIQUIDITY = 10**3;\r\n\r\n    address public immutable factory;\r\n    uint128 private token0; // uses single storage slot, accessible via getTokenIds\r\n    uint128 private token1; // uses single storage slot, accessible via getTokenIds\r\n\r\n    uint112 private reserve0; // uses single storage slot, accessible via getReserves\r\n    uint112 private reserve1; // uses single storage slot, accessible via getReserves\r\n    uint32 private blockTimestampLast; // uses single storage slot, accessible via getReserves\r\n\r\n    uint256 public price0CumulativeLast;\r\n    uint256 public price1CumulativeLast;\r\n    uint256 public kLast; // reserve0 * reserve1, as of immediately after the most recent liquidity event\r\n\r\n    uint256 private unlocked = 1;\r\n    modifier lock() {\r\n        require(unlocked == 1, \"SpacePiratesPair: LOCKED\");\r\n\r\n        unlocked = 0;\r\n        _;\r\n        unlocked = 1;\r\n    }\r\n\r\n    function getReserves()\r\n        public\r\n        view\r\n        returns (\r\n            uint112 _reserve0,\r\n            uint112 _reserve1,\r\n            uint32 _blockTimestampLast\r\n        )\r\n    {\r\n        _reserve0 = reserve0;\r\n        _reserve1 = reserve1;\r\n        _blockTimestampLast = blockTimestampLast;\r\n    }\r\n\r\n    function getTokenIds()\r\n        public\r\n        view\r\n        returns (uint128 _token0, uint128 _token1)\r\n    {\r\n        _token0 = token0;\r\n        _token1 = token1;\r\n    }\r\n\r\n    event Mint(address indexed sender, uint256 amount0, uint256 amount1);\r\n    event Burn(\r\n        address indexed sender,\r\n        uint256 amount0,\r\n        uint256 amount1,\r\n        address indexed to\r\n    );\r\n    event Swap(\r\n        address indexed sender,\r\n        uint256 amount0In,\r\n        uint256 amount1In,\r\n        uint256 amount0Out,\r\n        uint256 amount1Out,\r\n        address indexed to\r\n    );\r\n    event Sync(uint112 reserve0, uint112 reserve1);\r\n\r\n    constructor() {\r\n        factory = msg.sender;\r\n    }\r\n\r\n    // called once by the factory at time of deployment\r\n    function initialize(\r\n        uint128 _token0,\r\n        uint128 _token1,\r\n        address _tokenContract\r\n    ) external {\r\n        require(msg.sender == factory, \"SpacePiratesPair: FORBIDDEN\"); // sufficient check\r\n        _batchInit(_tokenContract);\r\n        token0 = _token0;\r\n        token1 = _token1;\r\n    }\r\n\r\n    // update reserves and, on the first call per block, price accumulators\r\n    function _update(\r\n        uint256 balance0,\r\n        uint256 balance1,\r\n        uint112 _reserve0,\r\n        uint112 _reserve1\r\n    ) private {\r\n        require(\r\n            balance0 <= type(uint112).max && balance1 <= type(uint112).max,\r\n            \"SpacePiratesPair: OVERFLOW\"\r\n        );\r\n        uint32 blockTimestamp = uint32(block.timestamp % 2**32);\r\n        uint32 timeElapsed;\r\n        unchecked {\r\n            timeElapsed = blockTimestamp - blockTimestampLast; // overflow is desired\r\n        }\r\n        if (timeElapsed > 0 && _reserve0 != 0 && _reserve1 != 0) {\r\n            // * never overflows, and + overflow is desired\r\n            unchecked {\r\n                price0CumulativeLast +=\r\n                    uint256(UQ112x112.encode(_reserve1).uqdiv(_reserve0)) *\r\n                    timeElapsed;\r\n                price1CumulativeLast +=\r\n                    uint256(UQ112x112.encode(_reserve0).uqdiv(_reserve1)) *\r\n                    timeElapsed;\r\n            }\r\n        }\r\n        reserve0 = uint112(balance0);\r\n        reserve1 = uint112(balance1);\r\n        blockTimestampLast = blockTimestamp;\r\n        emit Sync(reserve0, reserve1);\r\n    }\r\n\r\n    // if fee is on, mint liquidity equivalent to 1/6th of the growth in sqrt(k)\r\n    function _mintFee(uint112 _reserve0, uint112 _reserve1)\r\n        private\r\n        returns (bool feeOn)\r\n    {\r\n        address feeTo = ISpacePiratesFactory(factory).feeTo();\r\n        feeOn = feeTo != address(0);\r\n        uint256 _kLast = kLast; // gas savings\r\n        if (feeOn) {\r\n            if (_kLast != 0) {\r\n                uint256 rootK = Math.sqrt(uint256(_reserve0) * _reserve1);\r\n                uint256 rootKLast = Math.sqrt(_kLast);\r\n                if (rootK > rootKLast) {\r\n                    uint256 numerator = totalSupply * (rootK - rootKLast);\r\n                    uint256 denominator = rootK * 5 + rootKLast;\r\n                    uint256 liquidity = numerator / denominator;\r\n                    if (liquidity > 0) _mint(feeTo, liquidity);\r\n                }\r\n            }\r\n        } else if (_kLast != 0) {\r\n            kLast = 0;\r\n        }\r\n    }\r\n\r\n    // this low-level function should be called from a contract which performs important safety checks\r\n    function mint(address to) external lock returns (uint256 liquidity) {\r\n        (uint112 _reserve0, uint112 _reserve1, ) = getReserves(); // gas savings\r\n        (uint256 balance0, uint256 balance1) = balanceOfBatchPair(\r\n            address(this),\r\n            token0,\r\n            token1\r\n        );\r\n\r\n        uint256 amount0 = balance0 - _reserve0;\r\n        uint256 amount1 = balance1 - _reserve1;\r\n\r\n        bool feeOn = _mintFee(_reserve0, _reserve1);\r\n        uint256 _totalSupply = totalSupply; // gas savings, must be defined here since totalSupply can update in _mintFee\r\n        if (_totalSupply == 0) {\r\n            liquidity = Math.sqrt(amount0 * amount1) - MINIMUM_LIQUIDITY;\r\n            _mint(address(0), MINIMUM_LIQUIDITY); // permanently lock the first MINIMUM_LIQUIDITY tokens\r\n        } else {\r\n            liquidity = Math.min(\r\n                (amount0 * _totalSupply) / _reserve0,\r\n                (amount1 * _totalSupply) / _reserve1\r\n            );\r\n        }\r\n        require(\r\n            liquidity > 0,\r\n            \"SpacePiratesPair: INSUFFICIENT_LIQUIDITY_MINTED\"\r\n        );\r\n        _mint(to, liquidity);\r\n\r\n        _update(balance0, balance1, _reserve0, _reserve1);\r\n        if (feeOn) kLast = uint256(reserve0) * reserve1; // reserve0 and reserve1 are up-to-date\r\n        emit Mint(msg.sender, amount0, amount1);\r\n    }\r\n\r\n    // this low-level function should be called from a contract which performs important safety checks\r\n    function burn(address to)\r\n        external\r\n        lock\r\n        returns (uint256 amount0, uint256 amount1)\r\n    {\r\n        (uint112 _reserve0, uint112 _reserve1, ) = getReserves(); // gas savings\r\n        (uint128 _token0, uint128 _token1) = getTokenIds(); // gas savings\r\n        (uint256 balance0, uint256 balance1) = balanceOfBatchPair(\r\n            address(this),\r\n            _token0,\r\n            _token1\r\n        );\r\n        uint256 liquidity = balanceOf[address(this)];\r\n\r\n        bool feeOn = _mintFee(_reserve0, _reserve1);\r\n        uint256 _totalSupply = totalSupply; // gas savings, must be defined here since totalSupply can update in _mintFee\r\n        amount0 = (liquidity * balance0) / _totalSupply; // using balances ensures pro-rata distribution\r\n        amount1 = (liquidity * balance1) / _totalSupply; // using balances ensures pro-rata distribution\r\n        require(\r\n            amount0 > 0 && amount1 > 0,\r\n            \"SpacePiratesPair: INSUFFICIENT_LIQUIDITY_BURNED\"\r\n        );\r\n        _burn(address(this), liquidity);\r\n\r\n        safeBatchTransferFromPair(\r\n            address(this),\r\n            to,\r\n            _token0,\r\n            _token1,\r\n            amount0,\r\n            amount1\r\n        );\r\n\r\n        (balance0, balance1) = balanceOfBatchPair(\r\n            address(this),\r\n            _token0,\r\n            _token1\r\n        );\r\n\r\n        _update(balance0, balance1, _reserve0, _reserve1);\r\n        if (feeOn) kLast = uint256(reserve0) * reserve1; // reserve0 and reserve1 are up-to-date\r\n        emit Burn(msg.sender, amount0, amount1, to);\r\n    }\r\n\r\n    // this low-level function should be called from a contract which performs important safety checks\r\n    function swap(\r\n        uint256 amount0Out,\r\n        uint256 amount1Out,\r\n        address to,\r\n        bytes calldata data\r\n    ) external lock {\r\n        require(\r\n            amount0Out > 0 || amount1Out > 0,\r\n            \"SpacePiratesPair: INSUFFICIENT_OUTPUT_AMOUNT\"\r\n        );\r\n        (uint112 _reserve0, uint112 _reserve1, ) = getReserves(); // gas savings\r\n        require(\r\n            amount0Out < _reserve0 && amount1Out < _reserve1,\r\n            \"SpacePiratesPair: INSUFFICIENT_LIQUIDITY\"\r\n        );\r\n\r\n        uint256 balance0;\r\n        uint256 balance1;\r\n        {\r\n            // scope for _token{0,1}, avoids stack too deep errors\r\n            (uint128 _token0, uint128 _token1) = getTokenIds(); // gas savings\r\n            if (amount0Out > 0)\r\n                IERC1155(tokenContract).safeTransferFrom(\r\n                    address(this),\r\n                    to,\r\n                    _token0,\r\n                    amount0Out,\r\n                    \"\"\r\n                ); // optimistically transfer tokens\r\n            if (amount1Out > 0)\r\n                IERC1155(tokenContract).safeTransferFrom(\r\n                    address(this),\r\n                    to,\r\n                    _token1,\r\n                    amount1Out,\r\n                    \"\"\r\n                ); // optimistically transfer tokens\r\n            if (data.length > 0)\r\n                ISpacePiratesCallee(to).spacePiratesCall(\r\n                    msg.sender,\r\n                    amount0Out,\r\n                    amount1Out,\r\n                    data\r\n                );\r\n            (balance0, balance1) = balanceOfBatchPair(\r\n                address(this),\r\n                _token0,\r\n                _token1\r\n            );\r\n        }\r\n        uint256 amount0In = balance0 > _reserve0 - amount0Out\r\n            ? balance0 - (_reserve0 - amount0Out)\r\n            : 0;\r\n        uint256 amount1In = balance1 > _reserve1 - amount1Out\r\n            ? balance1 - (_reserve1 - amount1Out)\r\n            : 0;\r\n        require(\r\n            amount0In > 0 || amount1In > 0,\r\n            \"SpacePiratesPair: INSUFFICIENT_INPUT_AMOUNT\"\r\n        );\r\n        {\r\n            // scope for reserve{0,1}Adjusted, avoids stack too deep errors\r\n            uint256 balance0Adjusted = balance0 * 1000 - (amount0In * 3);\r\n            uint256 balance1Adjusted = balance1 * 1000 - (amount1In * 3);\r\n            require(\r\n                balance0Adjusted * balance1Adjusted >=\r\n                    uint256(_reserve0) * _reserve1 * (1000**2),\r\n                \"SpacePiratesPair: K\"\r\n            );\r\n        }\r\n\r\n        _update(balance0, balance1, _reserve0, _reserve1);\r\n        emit Swap(msg.sender, amount0In, amount1In, amount0Out, amount1Out, to);\r\n    }\r\n\r\n    // force balances to match reserves\r\n    function skim(address to) external lock {\r\n        uint128 _token0 = token0; // gas savings\r\n        uint128 _token1 = token1; // gas savings\r\n\r\n        (uint256 balance0, uint256 balance1) = balanceOfBatchPair(\r\n            address(this),\r\n            _token0,\r\n            _token1\r\n        );\r\n\r\n        safeBatchTransferFromPair(\r\n            address(this),\r\n            to,\r\n            _token0,\r\n            _token1,\r\n            balance0 - reserve0,\r\n            balance1 - reserve1\r\n        );\r\n    }\r\n\r\n    // force reserves to match balances\r\n    function sync() external lock {\r\n        (uint256 balance0, uint256 balance1) = balanceOfBatchPair(\r\n            address(this),\r\n            token0,\r\n            token1\r\n        );\r\n        _update(balance0, balance1, reserve0, reserve1);\r\n    }\r\n}\r\n",
  "sourcePath": "C:\\Users\\emanu\\space-pirates-contracts\\contracts\\dex\\SpacePiratesPair.sol",
  "compiler": {
    "name": "solc",
    "version": "0.8.6+commit.0e36fba0.mod.Emscripten.clang"
  },
  "schemaVersion": "2.0.1",
  "updatedAt": "2022-08-01T20:36:28.178Z"
}