{
  "contractName": "SpacePiratesNFT",
  "abi": [
    {
      "inputs": [
        {
          "internalType": "string",
          "name": "_baseURI",
          "type": "string"
        }
      ],
      "stateMutability": "nonpayable",
      "type": "constructor"
    },
    {
      "anonymous": false,
      "inputs": [
        {
          "indexed": true,
          "internalType": "address",
          "name": "owner",
          "type": "address"
        },
        {
          "indexed": true,
          "internalType": "address",
          "name": "approved",
          "type": "address"
        },
        {
          "indexed": true,
          "internalType": "uint256",
          "name": "tokenId",
          "type": "uint256"
        }
      ],
      "name": "Approval",
      "type": "event"
    },
    {
      "anonymous": false,
      "inputs": [
        {
          "indexed": true,
          "internalType": "address",
          "name": "owner",
          "type": "address"
        },
        {
          "indexed": true,
          "internalType": "address",
          "name": "operator",
          "type": "address"
        },
        {
          "indexed": false,
          "internalType": "bool",
          "name": "approved",
          "type": "bool"
        }
      ],
      "name": "ApprovalForAll",
      "type": "event"
    },
    {
      "anonymous": false,
      "inputs": [
        {
          "indexed": true,
          "internalType": "bytes32",
          "name": "role",
          "type": "bytes32"
        },
        {
          "indexed": false,
          "internalType": "address",
          "name": "account",
          "type": "address"
        }
      ],
      "name": "GrantRole",
      "type": "event"
    },
    {
      "anonymous": false,
      "inputs": [
        {
          "indexed": true,
          "internalType": "address",
          "name": "to",
          "type": "address"
        },
        {
          "indexed": false,
          "internalType": "uint256",
          "name": "id",
          "type": "uint256"
        },
        {
          "indexed": false,
          "internalType": "string",
          "name": "collection",
          "type": "string"
        },
        {
          "indexed": false,
          "internalType": "bool",
          "name": "locked",
          "type": "bool"
        }
      ],
      "name": "Mint",
      "type": "event"
    },
    {
      "anonymous": false,
      "inputs": [
        {
          "indexed": true,
          "internalType": "bytes32",
          "name": "role",
          "type": "bytes32"
        },
        {
          "indexed": false,
          "internalType": "address",
          "name": "account",
          "type": "address"
        }
      ],
      "name": "RevokeRole",
      "type": "event"
    },
    {
      "anonymous": false,
      "inputs": [
        {
          "indexed": true,
          "internalType": "bytes32",
          "name": "role",
          "type": "bytes32"
        },
        {
          "indexed": true,
          "internalType": "bytes32",
          "name": "previousAdminRole",
          "type": "bytes32"
        },
        {
          "indexed": true,
          "internalType": "bytes32",
          "name": "newAdminRole",
          "type": "bytes32"
        }
      ],
      "name": "RoleAdminChanged",
      "type": "event"
    },
    {
      "anonymous": false,
      "inputs": [
        {
          "indexed": true,
          "internalType": "bytes32",
          "name": "role",
          "type": "bytes32"
        },
        {
          "indexed": true,
          "internalType": "address",
          "name": "account",
          "type": "address"
        },
        {
          "indexed": true,
          "internalType": "address",
          "name": "sender",
          "type": "address"
        }
      ],
      "name": "RoleGranted",
      "type": "event"
    },
    {
      "anonymous": false,
      "inputs": [
        {
          "indexed": true,
          "internalType": "bytes32",
          "name": "role",
          "type": "bytes32"
        },
        {
          "indexed": true,
          "internalType": "address",
          "name": "account",
          "type": "address"
        },
        {
          "indexed": true,
          "internalType": "address",
          "name": "sender",
          "type": "address"
        }
      ],
      "name": "RoleRevoked",
      "type": "event"
    },
    {
      "anonymous": false,
      "inputs": [
        {
          "indexed": false,
          "internalType": "string",
          "name": "newUri",
          "type": "string"
        }
      ],
      "name": "SetBaseURI",
      "type": "event"
    },
    {
      "anonymous": false,
      "inputs": [
        {
          "indexed": true,
          "internalType": "address",
          "name": "from",
          "type": "address"
        },
        {
          "indexed": true,
          "internalType": "address",
          "name": "to",
          "type": "address"
        },
        {
          "indexed": true,
          "internalType": "uint256",
          "name": "tokenId",
          "type": "uint256"
        }
      ],
      "name": "Transfer",
      "type": "event"
    },
    {
      "inputs": [],
      "name": "CAN_BURN",
      "outputs": [
        {
          "internalType": "bytes32",
          "name": "",
          "type": "bytes32"
        }
      ],
      "stateMutability": "view",
      "type": "function"
    },
    {
      "inputs": [],
      "name": "CAN_MINT",
      "outputs": [
        {
          "internalType": "bytes32",
          "name": "",
          "type": "bytes32"
        }
      ],
      "stateMutability": "view",
      "type": "function"
    },
    {
      "inputs": [],
      "name": "DEFAULT_ADMIN_ROLE",
      "outputs": [
        {
          "internalType": "bytes32",
          "name": "",
          "type": "bytes32"
        }
      ],
      "stateMutability": "view",
      "type": "function"
    },
    {
      "inputs": [],
      "name": "URI_SETTER",
      "outputs": [
        {
          "internalType": "bytes32",
          "name": "",
          "type": "bytes32"
        }
      ],
      "stateMutability": "view",
      "type": "function"
    },
    {
      "inputs": [
        {
          "internalType": "address",
          "name": "to",
          "type": "address"
        },
        {
          "internalType": "uint256",
          "name": "tokenId",
          "type": "uint256"
        }
      ],
      "name": "approve",
      "outputs": [],
      "stateMutability": "nonpayable",
      "type": "function"
    },
    {
      "inputs": [
        {
          "internalType": "address",
          "name": "owner",
          "type": "address"
        }
      ],
      "name": "balanceOf",
      "outputs": [
        {
          "internalType": "uint256",
          "name": "",
          "type": "uint256"
        }
      ],
      "stateMutability": "view",
      "type": "function"
    },
    {
      "inputs": [
        {
          "internalType": "uint256",
          "name": "tokenId",
          "type": "uint256"
        }
      ],
      "name": "burn",
      "outputs": [],
      "stateMutability": "nonpayable",
      "type": "function"
    },
    {
      "inputs": [
        {
          "internalType": "uint256",
          "name": "tokenId",
          "type": "uint256"
        }
      ],
      "name": "getApproved",
      "outputs": [
        {
          "internalType": "address",
          "name": "",
          "type": "address"
        }
      ],
      "stateMutability": "view",
      "type": "function"
    },
    {
      "inputs": [
        {
          "internalType": "bytes32",
          "name": "role",
          "type": "bytes32"
        }
      ],
      "name": "getRoleAdmin",
      "outputs": [
        {
          "internalType": "bytes32",
          "name": "",
          "type": "bytes32"
        }
      ],
      "stateMutability": "view",
      "type": "function"
    },
    {
      "inputs": [
        {
          "internalType": "bytes32",
          "name": "role",
          "type": "bytes32"
        },
        {
          "internalType": "address",
          "name": "account",
          "type": "address"
        }
      ],
      "name": "grantRole",
      "outputs": [],
      "stateMutability": "nonpayable",
      "type": "function"
    },
    {
      "inputs": [
        {
          "internalType": "bytes32",
          "name": "role",
          "type": "bytes32"
        },
        {
          "internalType": "address",
          "name": "account",
          "type": "address"
        }
      ],
      "name": "hasRole",
      "outputs": [
        {
          "internalType": "bool",
          "name": "",
          "type": "bool"
        }
      ],
      "stateMutability": "view",
      "type": "function"
    },
    {
      "inputs": [
        {
          "internalType": "address",
          "name": "owner",
          "type": "address"
        },
        {
          "internalType": "address",
          "name": "operator",
          "type": "address"
        }
      ],
      "name": "isApprovedForAll",
      "outputs": [
        {
          "internalType": "bool",
          "name": "",
          "type": "bool"
        }
      ],
      "stateMutability": "view",
      "type": "function"
    },
    {
      "inputs": [
        {
          "internalType": "address",
          "name": "to",
          "type": "address"
        },
        {
          "internalType": "string",
          "name": "collection",
          "type": "string"
        },
        {
          "internalType": "uint256",
          "name": "quantity",
          "type": "uint256"
        },
        {
          "internalType": "bool",
          "name": "locked",
          "type": "bool"
        }
      ],
      "name": "mint",
      "outputs": [],
      "stateMutability": "nonpayable",
      "type": "function"
    },
    {
      "inputs": [],
      "name": "name",
      "outputs": [
        {
          "internalType": "string",
          "name": "",
          "type": "string"
        }
      ],
      "stateMutability": "view",
      "type": "function"
    },
    {
      "inputs": [
        {
          "internalType": "uint256",
          "name": "",
          "type": "uint256"
        }
      ],
      "name": "nftData",
      "outputs": [
        {
          "internalType": "string",
          "name": "collection",
          "type": "string"
        },
        {
          "internalType": "bool",
          "name": "locked",
          "type": "bool"
        }
      ],
      "stateMutability": "view",
      "type": "function"
    },
    {
      "inputs": [
        {
          "internalType": "uint256",
          "name": "tokenId",
          "type": "uint256"
        }
      ],
      "name": "ownerOf",
      "outputs": [
        {
          "internalType": "address",
          "name": "",
          "type": "address"
        }
      ],
      "stateMutability": "view",
      "type": "function"
    },
    {
      "inputs": [
        {
          "internalType": "bytes32",
          "name": "role",
          "type": "bytes32"
        },
        {
          "internalType": "address",
          "name": "account",
          "type": "address"
        }
      ],
      "name": "renounceRole",
      "outputs": [],
      "stateMutability": "nonpayable",
      "type": "function"
    },
    {
      "inputs": [
        {
          "internalType": "bytes32",
          "name": "role",
          "type": "bytes32"
        },
        {
          "internalType": "address",
          "name": "account",
          "type": "address"
        }
      ],
      "name": "revokeRole",
      "outputs": [],
      "stateMutability": "nonpayable",
      "type": "function"
    },
    {
      "inputs": [
        {
          "internalType": "address",
          "name": "from",
          "type": "address"
        },
        {
          "internalType": "address",
          "name": "to",
          "type": "address"
        },
        {
          "internalType": "uint256",
          "name": "tokenId",
          "type": "uint256"
        }
      ],
      "name": "safeTransferFrom",
      "outputs": [],
      "stateMutability": "nonpayable",
      "type": "function"
    },
    {
      "inputs": [
        {
          "internalType": "address",
          "name": "from",
          "type": "address"
        },
        {
          "internalType": "address",
          "name": "to",
          "type": "address"
        },
        {
          "internalType": "uint256",
          "name": "tokenId",
          "type": "uint256"
        },
        {
          "internalType": "bytes",
          "name": "_data",
          "type": "bytes"
        }
      ],
      "name": "safeTransferFrom",
      "outputs": [],
      "stateMutability": "nonpayable",
      "type": "function"
    },
    {
      "inputs": [
        {
          "internalType": "address",
          "name": "operator",
          "type": "address"
        },
        {
          "internalType": "bool",
          "name": "approved",
          "type": "bool"
        }
      ],
      "name": "setApprovalForAll",
      "outputs": [],
      "stateMutability": "nonpayable",
      "type": "function"
    },
    {
      "inputs": [
        {
          "internalType": "string",
          "name": "_baseURI",
          "type": "string"
        }
      ],
      "name": "setBaseURI",
      "outputs": [],
      "stateMutability": "nonpayable",
      "type": "function"
    },
    {
      "inputs": [],
      "name": "supply",
      "outputs": [
        {
          "internalType": "uint256",
          "name": "",
          "type": "uint256"
        }
      ],
      "stateMutability": "view",
      "type": "function"
    },
    {
      "inputs": [
        {
          "internalType": "bytes4",
          "name": "interfaceId",
          "type": "bytes4"
        }
      ],
      "name": "supportsInterface",
      "outputs": [
        {
          "internalType": "bool",
          "name": "",
          "type": "bool"
        }
      ],
      "stateMutability": "view",
      "type": "function"
    },
    {
      "inputs": [],
      "name": "symbol",
      "outputs": [
        {
          "internalType": "string",
          "name": "",
          "type": "string"
        }
      ],
      "stateMutability": "view",
      "type": "function"
    },
    {
      "inputs": [
        {
          "internalType": "uint256",
          "name": "tokenId",
          "type": "uint256"
        }
      ],
      "name": "tokenURI",
      "outputs": [
        {
          "internalType": "string",
          "name": "",
          "type": "string"
        }
      ],
      "stateMutability": "view",
      "type": "function"
    },
    {
      "inputs": [
        {
          "internalType": "address",
          "name": "from",
          "type": "address"
        },
        {
          "internalType": "address",
          "name": "to",
          "type": "address"
        },
        {
          "internalType": "uint256",
          "name": "tokenId",
          "type": "uint256"
        }
      ],
      "name": "transferFrom",
      "outputs": [],
      "stateMutability": "nonpayable",
      "type": "function"
    },
    {
      "inputs": [
        {
          "internalType": "address",
          "name": "_owner",
          "type": "address"
        }
      ],
      "name": "walletOfOwner",
      "outputs": [
        {
          "internalType": "uint256[]",
          "name": "",
          "type": "uint256[]"
        }
      ],
      "stateMutability": "view",
      "type": "function"
    }
  ],
  "bytecode": "0x60806040523480156200001157600080fd5b50d380156200001f57600080fd5b50d280156200002d57600080fd5b50604051620027ca380380620027ca833981016040819052620000509162000245565b604080518082018252601281527153706163652050697261746573204e46547360701b60208083019182528351808501909452600684526514d40b53919560d21b908401528151919291620000a8916000916200019f565b508051620000be9060019060208401906200019f565b50508151620000d6915060089060208401906200019f565b50620000e4600033620000eb565b5062000374565b620000f78282620000fb565b5050565b60008281526006602090815260408083206001600160a01b038516845290915290205460ff16620000f75760008281526006602090815260408083206001600160a01b03851684529091529020805460ff191660011790556200015b3390565b6001600160a01b0316816001600160a01b0316837f2f8788117e7eff1d82e926ec794901d17c78024a50270940304540a733656f0d60405160405180910390a45050565b828054620001ad9062000321565b90600052602060002090601f016020900481019282620001d157600085556200021c565b82601f10620001ec57805160ff19168380011785556200021c565b828001600101855582156200021c579182015b828111156200021c578251825591602001919060010190620001ff565b506200022a9291506200022e565b5090565b5b808211156200022a57600081556001016200022f565b600060208083850312156200025957600080fd5b82516001600160401b03808211156200027157600080fd5b818501915085601f8301126200028657600080fd5b8151818111156200029b576200029b6200035e565b604051601f8201601f19908116603f01168101908382118183101715620002c657620002c66200035e565b816040528281528886848701011115620002df57600080fd5b600093505b82841015620003035784840186015181850187015292850192620002e4565b82841115620003155760008684830101525b98975050505050505050565b600181811c908216806200033657607f821691505b602082108114156200035857634e487b7160e01b600052602260045260246000fd5b50919050565b634e487b7160e01b600052604160045260246000fd5b61244680620003846000396000f3fe608060405234801561001057600080fd5b50d3801561001d57600080fd5b50d2801561002a57600080fd5b50600436106101de5760003560e01c80636352211e11610113578063a22cb465116100b1578063cd2ac3f11161008b578063cd2ac3f11461041c578063cda472b01461042f578063d547741f14610456578063e985e9c51461046957600080fd5b8063a22cb465146103e3578063b88d4fde146103f6578063c87b56dd1461040957600080fd5b80638c210975116100ed5780638c2109751461039f57806391d14854146103c057806395d89b41146103d3578063a217fddf146103db57600080fd5b80636352211e1461035257806370a08231146103655780638127fdf31461037857600080fd5b8063248a9ca31161018057806342842e0e1161015a57806342842e0e146102f957806342966c681461030c578063438b63001461031f57806355f804b31461033f57600080fd5b8063248a9ca3146102b05780632f2ff15d146102d357806336568abe146102e657600080fd5b8063081812fc116101bc578063081812fc14610236578063095ea7b314610261578063121d8fdd1461027657806323b872dd1461029d57600080fd5b806301ffc9a7146101e3578063047fc9aa1461020b57806306fdde0314610221575b600080fd5b6101f66101f1366004611ece565b6104a5565b60405190151581526020015b60405180910390f35b6102136104b6565b604051908152602001610202565b6102296104c6565b604051610202919061218e565b610249610244366004611e92565b610558565b6040516001600160a01b039091168152602001610202565b61027461026f366004611e68565b6105f2565b005b6102137ff897eaf0ef675fc38c678beace50029c7229c9c4d2689259d4397ac85148bb6b81565b6102746102ab366004611d0a565b610708565b6102136102be366004611e92565b60009081526006602052604090206001015490565b6102746102e1366004611eab565b610739565b6102746102f4366004611eab565b6107a2565b610274610307366004611d0a565b610820565b61027461031a366004611e92565b61083b565b61033261032d366004611cbc565b6108db565b604051610202919061211b565b61027461034d366004611f08565b6109c6565b610249610360366004611e92565b610a3b565b610213610373366004611cbc565b610ab2565b6102137fa62d8e55240185837238af9adc11e51727e005b95707f32446366dbe58f727e281565b6103b26103ad366004611e92565b610b39565b6040516102029291906121a1565b6101f66103ce366004611eab565b610be0565b610229610c0b565b610213600081565b6102746103f1366004611dc2565b610c1a565b610274610404366004611d46565b610c25565b610229610417366004611e92565b610c5d565b61027461042a366004611dec565b610d0f565b6102137f5fae0c7bd414a04df9e8c5c6306f0962d6b05973710bc170aa415577df8e2c5c81565b610274610464366004611eab565b610e84565b6101f6610477366004611cd7565b6001600160a01b03918216600090815260056020908152604080832093909416825291909152205460ff1690565b60006104b082610ee4565b92915050565b60006104c160075490565b905090565b6060600080546104d590612338565b80601f016020809104026020016040519081016040528092919081815260200182805461050190612338565b801561054e5780601f106105235761010080835404028352916020019161054e565b820191906000526020600020905b81548152906001019060200180831161053157829003601f168201915b5050505050905090565b6000818152600260205260408120546001600160a01b03166105d65760405162461bcd60e51b815260206004820152602c60248201527f4552433732313a20617070726f76656420717565727920666f72206e6f6e657860448201526b34b9ba32b73a103a37b5b2b760a11b60648201526084015b60405180910390fd5b506000908152600460205260409020546001600160a01b031690565b60006105fd82610a3b565b9050806001600160a01b0316836001600160a01b0316141561066b5760405162461bcd60e51b815260206004820152602160248201527f4552433732313a20617070726f76616c20746f2063757272656e74206f776e656044820152603960f91b60648201526084016105cd565b336001600160a01b038216148061068757506106878133610477565b6106f95760405162461bcd60e51b815260206004820152603860248201527f4552433732313a20617070726f76652063616c6c6572206973206e6f74206f7760448201527f6e6572206e6f7220617070726f76656420666f7220616c6c000000000000000060648201526084016105cd565b6107038383610f09565b505050565b6107123382610f77565b61072e5760405162461bcd60e51b81526004016105cd90612217565b61070383838361106e565b60008281526006602052604090206001015461075481611215565b61075e8383611222565b6040516001600160a01b038316815283907f5a06360d65acf95e98445dc834f205063424c636e65418d928cdfabc33a95399906020015b60405180910390a2505050565b6001600160a01b03811633146108125760405162461bcd60e51b815260206004820152602f60248201527f416363657373436f6e74726f6c3a2063616e206f6e6c792072656e6f756e636560448201526e103937b632b9903337b91039b2b63360891b60648201526084016105cd565b61081c82826112a8565b5050565b61070383838360405180602001604052806000815250610c25565b7ff897eaf0ef675fc38c678beace50029c7229c9c4d2689259d4397ac85148bb6b61086581611215565b61086f3383610f77565b6108d25760405162461bcd60e51b815260206004820152602e60248201527f4552433732313a2063616c6c6572206973206e6f7420746f6b656e206f776e6560448201526d1c881b9bdc88185c1c1c9bdd995960921b60648201526084016105cd565b61081c8261130f565b606060006108e883610ab2565b905060008167ffffffffffffffff811115610905576109056123e4565b60405190808252806020026020018201604052801561092e578160200160208202803683370190505b509050600160008061093e6104b6565b90505b84821080156109505750808311155b156109bb57600061096084610a3b565b9050876001600160a01b0316816001600160a01b031614156109a8578385848151811061098f5761098f6123ce565b6020908102919091010152826109a481612373565b9350505b836109b281612373565b94505050610941565b509195945050505050565b7fa62d8e55240185837238af9adc11e51727e005b95707f32446366dbe58f727e26109f081611215565b6109fc60088484611afc565b507f23c8c9488efebfd474e85a7956de6f39b17c7ab88502d42a623db2d8e382bbaa8383604051610a2e92919061215f565b60405180910390a1505050565b6000818152600260205260408120546001600160a01b0316806104b05760405162461bcd60e51b815260206004820152602960248201527f4552433732313a206f776e657220717565727920666f72206e6f6e657869737460448201526832b73a103a37b5b2b760b91b60648201526084016105cd565b60006001600160a01b038216610b1d5760405162461bcd60e51b815260206004820152602a60248201527f4552433732313a2062616c616e636520717565727920666f7220746865207a65604482015269726f206164647265737360b01b60648201526084016105cd565b506001600160a01b031660009081526003602052604090205490565b600960205260009081526040902080548190610b5490612338565b80601f0160208091040260200160405190810160405280929190818152602001828054610b8090612338565b8015610bcd5780601f10610ba257610100808354040283529160200191610bcd565b820191906000526020600020905b815481529060010190602001808311610bb057829003601f168201915b5050506001909301549192505060ff1682565b60009182526006602090815260408084206001600160a01b0393909316845291905290205460ff1690565b6060600180546104d590612338565b61081c3383836113b6565b610c2f3383610f77565b610c4b5760405162461bcd60e51b81526004016105cd90612217565b610c5784848484611485565b50505050565b6000818152600260205260409020546060906001600160a01b0316610cdd5760405162461bcd60e51b815260206004820152603060248201527f5370616365506972617465734e46543a2055524920717565727920666f72206e60448201526f37b732bc34b9ba32b73a103a37b5b2b760811b60648201526084016105cd565b6008610ce8836114b8565b604051602001610cf9929190611fc2565b6040516020818303038152906040529050919050565b7f5fae0c7bd414a04df9e8c5c6306f0962d6b05973710bc170aa415577df8e2c5c610d3981611215565b60008311610d9e5760405162461bcd60e51b815260206004820152602c60248201527f7370616365506972617465734e46543a206e65656420746f206d696e7420617460448201526b081b19585cdd080c4813919560a21b60648201526084016105cd565b60005b83811015610e7c57610db7600780546001019055565b6000610dc260075490565b604080518082018252888152861515602080830191909152600084815260098252929092208151805194955091939092610e00928492910190611b80565b50602091909101516001909101805460ff1916911515919091179055610e2687826115b6565b866001600160a01b03167f9ae0e4752a9da458306ab9f2a6dc9ce3ae3ace8a23900f1a309ded3707eb9e77828887604051610e6393929190612268565b60405180910390a250610e7581612373565b9050610da1565b505050505050565b600082815260066020526040902060010154610e9f81611215565b610ea983836112a8565b6040516001600160a01b038316815283907f76e6093c136cd7faa5a6d92b2b633f3b4595abd4a529b7a13917398355fea69490602001610795565b60006001600160e01b03198216637965db0b60e01b14806104b057506104b082611704565b600081815260046020526040902080546001600160a01b0319166001600160a01b0384169081179091558190610f3e82610a3b565b6001600160a01b03167f8c5be1e5ebec7d5bd14f71427d1e84f3dd0314c0f7b2291e5b200ac8c7c3b92560405160405180910390a45050565b6000818152600260205260408120546001600160a01b0316610ff05760405162461bcd60e51b815260206004820152602c60248201527f4552433732313a206f70657261746f7220717565727920666f72206e6f6e657860448201526b34b9ba32b73a103a37b5b2b760a11b60648201526084016105cd565b6000610ffb83610a3b565b9050806001600160a01b0316846001600160a01b0316148061104257506001600160a01b0380821660009081526005602090815260408083209388168352929052205460ff165b806110665750836001600160a01b031661105b84610558565b6001600160a01b0316145b949350505050565b826001600160a01b031661108182610a3b565b6001600160a01b0316146110e55760405162461bcd60e51b815260206004820152602560248201527f4552433732313a207472616e736665722066726f6d20696e636f72726563742060448201526437bbb732b960d91b60648201526084016105cd565b6001600160a01b0382166111475760405162461bcd60e51b8152602060048201526024808201527f4552433732313a207472616e7366657220746f20746865207a65726f206164646044820152637265737360e01b60648201526084016105cd565b611152838383611754565b61115d600082610f09565b6001600160a01b03831660009081526003602052604081208054600192906111869084906122de565b90915550506001600160a01b03821660009081526003602052604081208054600192906111b4908490612293565b909155505060008181526002602052604080822080546001600160a01b0319166001600160a01b0386811691821790925591518493918716917fddf252ad1be2c89b69c2b068fc378daa952ba7f163c4a11628f55a4df523b3ef91a4505050565b61121f81336117e8565b50565b61122c8282610be0565b61081c5760008281526006602090815260408083206001600160a01b03851684529091529020805460ff191660011790556112643390565b6001600160a01b0316816001600160a01b0316837f2f8788117e7eff1d82e926ec794901d17c78024a50270940304540a733656f0d60405160405180910390a45050565b6112b28282610be0565b1561081c5760008281526006602090815260408083206001600160a01b0385168085529252808320805460ff1916905551339285917ff6391f5c32d9c69d2a47ea670b442974b53935d1edc7fd64eb21e047a839171b9190a45050565b600061131a82610a3b565b905061132881600084611754565b611333600083610f09565b6001600160a01b038116600090815260036020526040812080546001929061135c9084906122de565b909155505060008281526002602052604080822080546001600160a01b0319169055518391906001600160a01b038416907fddf252ad1be2c89b69c2b068fc378daa952ba7f163c4a11628f55a4df523b3ef908390a45050565b816001600160a01b0316836001600160a01b031614156114185760405162461bcd60e51b815260206004820152601960248201527f4552433732313a20617070726f766520746f2063616c6c65720000000000000060448201526064016105cd565b6001600160a01b03838116600081815260056020908152604080832094871680845294825291829020805460ff191686151590811790915591519182527f17307eab39ab6107e8899845ad3d59bd9653f200f220920489ca2b5937696c31910160405180910390a3505050565b61149084848461106e565b61149c8484848461184c565b610c575760405162461bcd60e51b81526004016105cd906121c5565b6060816114dc5750506040805180820190915260018152600360fc1b602082015290565b8160005b811561150657806114f081612373565b91506114ff9050600a836122ab565b91506114e0565b60008167ffffffffffffffff811115611521576115216123e4565b6040519080825280601f01601f19166020018201604052801561154b576020820181803683370190505b5090505b8415611066576115606001836122de565b915061156d600a8661238e565b611578906030612293565b60f81b81838151811061158d5761158d6123ce565b60200101906001600160f81b031916908160001a9053506115af600a866122ab565b945061154f565b6001600160a01b03821661160c5760405162461bcd60e51b815260206004820181905260248201527f4552433732313a206d696e7420746f20746865207a65726f206164647265737360448201526064016105cd565b6000818152600260205260409020546001600160a01b0316156116715760405162461bcd60e51b815260206004820152601c60248201527f4552433732313a20746f6b656e20616c7265616479206d696e7465640000000060448201526064016105cd565b61167d60008383611754565b6001600160a01b03821660009081526003602052604081208054600192906116a6908490612293565b909155505060008181526002602052604080822080546001600160a01b0319166001600160a01b03861690811790915590518392907fddf252ad1be2c89b69c2b068fc378daa952ba7f163c4a11628f55a4df523b3ef908290a45050565b60006001600160e01b031982166380ac58cd60e01b148061173557506001600160e01b03198216635b5e139f60e01b145b806104b057506301ffc9a760e01b6001600160e01b03198316146104b0565b60008181526009602052604090206001015460ff16158061177c57506001600160a01b038316155b8061178e57506001600160a01b038216155b6107035760405162461bcd60e51b815260206004820152602560248201527f5370616365506972617465734e46543a204e4654206e6f74207472616e7366656044820152647261626c6560d81b60648201526084016105cd565b6117f28282610be0565b61081c5761180a816001600160a01b03166014611959565b611815836020611959565b604051602001611826929190612069565b60408051601f198184030181529082905262461bcd60e51b82526105cd9160040161218e565b6000836001600160a01b0316d41561194e57604051630a85bd0160e11b81526001600160a01b0385169063150b7a02906118909033908990889088906004016120de565b602060405180830381600087803b1580156118aa57600080fd5b505af19250505080156118da575060408051601f3d908101601f191682019092526118d791810190611eeb565b60015b611934573d808015611908576040519150601f19603f3d011682016040523d82523d6000602084013e61190d565b606091505b50805161192c5760405162461bcd60e51b81526004016105cd906121c5565b805181602001fd5b6001600160e01b031916630a85bd0160e11b149050611066565b506001949350505050565b606060006119688360026122bf565b611973906002612293565b67ffffffffffffffff81111561198b5761198b6123e4565b6040519080825280601f01601f1916602001820160405280156119b5576020820181803683370190505b509050600360fc1b816000815181106119d0576119d06123ce565b60200101906001600160f81b031916908160001a905350600f60fb1b816001815181106119ff576119ff6123ce565b60200101906001600160f81b031916908160001a9053506000611a238460026122bf565b611a2e906001612293565b90505b6001811115611aa6576f181899199a1a9b1b9c1cb0b131b232b360811b85600f1660108110611a6257611a626123ce565b1a60f81b828281518110611a7857611a786123ce565b60200101906001600160f81b031916908160001a90535060049490941c93611a9f81612321565b9050611a31565b508315611af55760405162461bcd60e51b815260206004820181905260248201527f537472696e67733a20686578206c656e67746820696e73756666696369656e7460448201526064016105cd565b9392505050565b828054611b0890612338565b90600052602060002090601f016020900481019282611b2a5760008555611b70565b82601f10611b435782800160ff19823516178555611b70565b82800160010185558215611b70579182015b82811115611b70578235825591602001919060010190611b55565b50611b7c929150611bf4565b5090565b828054611b8c90612338565b90600052602060002090601f016020900481019282611bae5760008555611b70565b82601f10611bc757805160ff1916838001178555611b70565b82800160010185558215611b70579182015b82811115611b70578251825591602001919060010190611bd9565b5b80821115611b7c5760008155600101611bf5565b600067ffffffffffffffff80841115611c2457611c246123e4565b604051601f8501601f19908116603f01168101908282118183101715611c4c57611c4c6123e4565b81604052809350858152868686011115611c6557600080fd5b858560208301376000602087830101525050509392505050565b600081356001600160a81b0381168114611c9857600080fd5b6001600160a01b031692915050565b80358015158114611cb757600080fd5b919050565b600060208284031215611cce57600080fd5b611af582611c7f565b60008060408385031215611cea57600080fd5b611cf383611c7f565b9150611d0160208401611c7f565b90509250929050565b600080600060608486031215611d1f57600080fd5b611d2884611c7f565b9250611d3660208501611c7f565b9150604084013590509250925092565b60008060008060808587031215611d5c57600080fd5b611d6585611c7f565b9350611d7360208601611c7f565b925060408501359150606085013567ffffffffffffffff811115611d9657600080fd5b8501601f81018713611da757600080fd5b611db687823560208401611c09565b91505092959194509250565b60008060408385031215611dd557600080fd5b611dde83611c7f565b9150611d0160208401611ca7565b60008060008060808587031215611e0257600080fd5b611e0b85611c7f565b9350602085013567ffffffffffffffff811115611e2757600080fd5b8501601f81018713611e3857600080fd5b611e4787823560208401611c09565b93505060408501359150611e5d60608601611ca7565b905092959194509250565b60008060408385031215611e7b57600080fd5b611e8483611c7f565b946020939093013593505050565b600060208284031215611ea457600080fd5b5035919050565b60008060408385031215611ebe57600080fd5b82359150611d0160208401611c7f565b600060208284031215611ee057600080fd5b8135611af5816123fa565b600060208284031215611efd57600080fd5b8151611af5816123fa565b60008060208385031215611f1b57600080fd5b823567ffffffffffffffff80821115611f3357600080fd5b818501915085601f830112611f4757600080fd5b813581811115611f5657600080fd5b866020828501011115611f6857600080fd5b60209290920196919550909350505050565b60008151808452611f928160208601602086016122f5565b601f01601f19169290920160200192915050565b60008151611fb88185602086016122f5565b9290920192915050565b600080845481600182811c915080831680611fde57607f831692505b6020808410821415611ffe57634e487b7160e01b86526022600452602486fd5b818015612012576001811461202357612050565b60ff19861689528489019650612050565b60008b81526020902060005b868110156120485781548b82015290850190830161202f565b505084890196505b5050505050506120608185611fa6565b95945050505050565b7f416363657373436f6e74726f6c3a206163636f756e74200000000000000000008152600083516120a18160178501602088016122f5565b7001034b99036b4b9b9b4b733903937b6329607d1b60179184019182015283516120d28160288401602088016122f5565b01602801949350505050565b6001600160a01b038581168252841660208201526040810183905260806060820181905260009061211190830184611f7a565b9695505050505050565b6020808252825182820181905260009190848201906040850190845b8181101561215357835183529284019291840191600101612137565b50909695505050505050565b60208152816020820152818360408301376000818301604090810191909152601f909201601f19160101919050565b602081526000611af56020830184611f7a565b6040815260006121b46040830185611f7a565b905082151560208301529392505050565b60208082526032908201527f4552433732313a207472616e7366657220746f206e6f6e20455243373231526560408201527131b2b4bb32b91034b6b83632b6b2b73a32b960711b606082015260800190565b60208082526031908201527f4552433732313a207472616e736665722063616c6c6572206973206e6f74206f6040820152701ddb995c881b9bdc88185c1c1c9bdd9959607a1b606082015260800190565b8381526060602082015260006122816060830185611f7a565b90508215156040830152949350505050565b600082198211156122a6576122a66123a2565b500190565b6000826122ba576122ba6123b8565b500490565b60008160001904831182151516156122d9576122d96123a2565b500290565b6000828210156122f0576122f06123a2565b500390565b60005b838110156123105781810151838201526020016122f8565b83811115610c575750506000910152565b600081612330576123306123a2565b506000190190565b600181811c9082168061234c57607f821691505b6020821081141561236d57634e487b7160e01b600052602260045260246000fd5b50919050565b6000600019821415612387576123876123a2565b5060010190565b60008261239d5761239d6123b8565b500690565b634e487b7160e01b600052601160045260246000fd5b634e487b7160e01b600052601260045260246000fd5b634e487b7160e01b600052603260045260246000fd5b634e487b7160e01b600052604160045260246000fd5b6001600160e01b03198116811461121f57600080fdfea26474726f6e5822122098d6aa7bfd7f74407efc8b665c86b7c7de4660ea6b22305bcb97e4df38e43b1964736f6c63430008060033",
  "source": "// SPDX-License-Identifier: MIT\r\npragma solidity ^0.8.0;\r\n\r\nimport \"@openzeppelin/contracts/token/ERC721/ERC721.sol\";\r\nimport \"@openzeppelin/contracts/access/AccessControl.sol\";\r\nimport \"@openzeppelin/contracts/utils/Counters.sol\";\r\nimport \"@openzeppelin/contracts/utils/Strings.sol\";\r\n\r\n/**\r\n * @title Space Pirates NFT Storage\r\n * @author @Gr3it, @yuripaoloni (reviewer)\r\n * @notice Storage all the NFTs data of the protocol\r\n */\r\n\r\ncontract SpacePiratesNFT is ERC721, AccessControl {\r\n    using Counters for Counters.Counter;\r\n    using Strings for uint256;\r\n\r\n    Counters.Counter private _tokenIdCounter;\r\n    string private baseURI;\r\n\r\n    bytes32 public constant CAN_MINT = keccak256(\"CAN_MINT\");\r\n    bytes32 public constant CAN_BURN = keccak256(\"CAN_BURN\");\r\n    bytes32 public constant URI_SETTER = keccak256(\"URI_SETTER\");\r\n\r\n    struct AdditionalInfo {\r\n        string collection;\r\n        bool locked;\r\n    }\r\n    mapping(uint256 => AdditionalInfo) public nftData;\r\n\r\n    event Mint(address indexed to, uint256 id, string collection, bool locked);\r\n    event SetBaseURI(string newUri);\r\n    event GrantRole(bytes32 indexed role, address account);\r\n    event RevokeRole(bytes32 indexed role, address account);\r\n\r\n    constructor(string memory _baseURI) ERC721(\"Space Pirates NFTs\", \"SP-NFT\") {\r\n        baseURI = _baseURI;\r\n\r\n        _setupRole(DEFAULT_ADMIN_ROLE, msg.sender);\r\n    }\r\n\r\n    function supply() public view returns (uint256) {\r\n        return _tokenIdCounter.current();\r\n    }\r\n\r\n    function tokenURI(uint256 tokenId)\r\n        public\r\n        view\r\n        override\r\n        returns (string memory)\r\n    {\r\n        require(\r\n            _exists(tokenId),\r\n            \"SpacePiratesNFT: URI query for nonexistent token\"\r\n        );\r\n\r\n        return string(abi.encodePacked(baseURI, tokenId.toString()));\r\n    }\r\n\r\n    function walletOfOwner(address _owner)\r\n        external\r\n        view\r\n        returns (uint256[] memory)\r\n    {\r\n        uint256 ownerTokenCount = balanceOf(_owner);\r\n        uint256[] memory ownedTokenIds = new uint256[](ownerTokenCount);\r\n        uint256 currentTokenId = 1;\r\n        uint256 ownedTokenIndex = 0;\r\n        uint256 currentSupply = supply();\r\n\r\n        while (\r\n            ownedTokenIndex < ownerTokenCount && currentTokenId <= currentSupply\r\n        ) {\r\n            address currentTokenOwner = ownerOf(currentTokenId);\r\n            if (currentTokenOwner == _owner) {\r\n                ownedTokenIds[ownedTokenIndex] = currentTokenId;\r\n                ownedTokenIndex++;\r\n            }\r\n            currentTokenId++;\r\n        }\r\n        return ownedTokenIds;\r\n    }\r\n\r\n    function mint(\r\n        address to,\r\n        string memory collection,\r\n        uint256 quantity,\r\n        bool locked\r\n    ) public onlyRole(CAN_MINT) {\r\n        require(quantity > 0, \"spacePiratesNFT: need to mint at least 1 NFT\");\r\n        for (uint256 i = 0; i < quantity; ++i) {\r\n            _tokenIdCounter.increment();\r\n            uint256 id = _tokenIdCounter.current();\r\n            nftData[id] = AdditionalInfo(collection, locked);\r\n            _mint(to, id);\r\n            emit Mint(to, id, collection, locked);\r\n        }\r\n    }\r\n\r\n    function burn(uint256 tokenId) public onlyRole(CAN_BURN) {\r\n        require(\r\n            _isApprovedOrOwner(msg.sender, tokenId),\r\n            \"ERC721: caller is not token owner nor approved\"\r\n        );\r\n        _burn(tokenId);\r\n    }\r\n\r\n    function setBaseURI(string calldata _baseURI)\r\n        external\r\n        onlyRole(URI_SETTER)\r\n    {\r\n        baseURI = _baseURI;\r\n        emit SetBaseURI(_baseURI);\r\n    }\r\n\r\n    function _beforeTokenTransfer(\r\n        address from,\r\n        address to,\r\n        uint256 tokenId\r\n    ) internal virtual override {\r\n        require(\r\n            !nftData[tokenId].locked || from == address(0) || to == address(0),\r\n            \"SpacePiratesNFT: NFT not transferable\"\r\n        );\r\n    }\r\n\r\n    function grantRole(bytes32 role, address account)\r\n        public\r\n        override\r\n        onlyRole(getRoleAdmin(role))\r\n    {\r\n        _grantRole(role, account);\r\n        emit GrantRole(role, account);\r\n    }\r\n\r\n    function revokeRole(bytes32 role, address account)\r\n        public\r\n        override\r\n        onlyRole(getRoleAdmin(role))\r\n    {\r\n        _revokeRole(role, account);\r\n        emit RevokeRole(role, account);\r\n    }\r\n\r\n    function supportsInterface(bytes4 interfaceId)\r\n        public\r\n        view\r\n        virtual\r\n        override(ERC721, AccessControl)\r\n        returns (bool)\r\n    {\r\n        return super.supportsInterface(interfaceId);\r\n    }\r\n}\r\n",
  "sourcePath": "C:/Users/emanu/space-pirates-contracts/contracts/NFT/SpacePiratesNFT.sol",
  "compiler": {
    "name": "solc",
    "version": "0.8.6+commit.0e36fba0.mod.Emscripten.clang"
  },
  "schemaVersion": "2.0.1",
  "updatedAt": "2022-08-01T20:36:28.084Z"
}