{
  "contractName": "SpacePiratesTokens",
  "abi": [
    {
      "inputs": [
        {
          "internalType": "string",
          "name": "uri",
          "type": "string"
        }
      ],
      "stateMutability": "nonpayable",
      "type": "constructor"
    },
    {
      "anonymous": false,
      "inputs": [
        {
          "indexed": true,
          "internalType": "address",
          "name": "account",
          "type": "address"
        },
        {
          "indexed": true,
          "internalType": "address",
          "name": "operator",
          "type": "address"
        },
        {
          "indexed": false,
          "internalType": "bool",
          "name": "approved",
          "type": "bool"
        }
      ],
      "name": "ApprovalForAll",
      "type": "event"
    },
    {
      "anonymous": false,
      "inputs": [
        {
          "indexed": true,
          "internalType": "address",
          "name": "sender",
          "type": "address"
        },
        {
          "indexed": false,
          "internalType": "uint256",
          "name": "id",
          "type": "uint256"
        },
        {
          "indexed": false,
          "internalType": "uint256",
          "name": "amount",
          "type": "uint256"
        }
      ],
      "name": "Burn",
      "type": "event"
    },
    {
      "anonymous": false,
      "inputs": [
        {
          "indexed": true,
          "internalType": "address",
          "name": "sender",
          "type": "address"
        },
        {
          "indexed": false,
          "internalType": "uint256[]",
          "name": "ids",
          "type": "uint256[]"
        },
        {
          "indexed": false,
          "internalType": "uint256[]",
          "name": "amounts",
          "type": "uint256[]"
        }
      ],
      "name": "BurnBatch",
      "type": "event"
    },
    {
      "anonymous": false,
      "inputs": [
        {
          "indexed": true,
          "internalType": "bytes32[]",
          "name": "roles",
          "type": "bytes32[]"
        },
        {
          "indexed": false,
          "internalType": "address[]",
          "name": "accounts",
          "type": "address[]"
        }
      ],
      "name": "GrantMultiRole",
      "type": "event"
    },
    {
      "anonymous": false,
      "inputs": [
        {
          "indexed": true,
          "internalType": "bytes32",
          "name": "role",
          "type": "bytes32"
        },
        {
          "indexed": false,
          "internalType": "address",
          "name": "account",
          "type": "address"
        }
      ],
      "name": "GrantRole",
      "type": "event"
    },
    {
      "anonymous": false,
      "inputs": [],
      "name": "LockTokenTransfer",
      "type": "event"
    },
    {
      "anonymous": false,
      "inputs": [
        {
          "indexed": true,
          "internalType": "address",
          "name": "sender",
          "type": "address"
        },
        {
          "indexed": false,
          "internalType": "uint256",
          "name": "id",
          "type": "uint256"
        },
        {
          "indexed": false,
          "internalType": "uint256",
          "name": "amount",
          "type": "uint256"
        },
        {
          "indexed": true,
          "internalType": "address",
          "name": "to",
          "type": "address"
        }
      ],
      "name": "Mint",
      "type": "event"
    },
    {
      "anonymous": false,
      "inputs": [
        {
          "indexed": true,
          "internalType": "address",
          "name": "sender",
          "type": "address"
        },
        {
          "indexed": false,
          "internalType": "uint256[]",
          "name": "ids",
          "type": "uint256[]"
        },
        {
          "indexed": false,
          "internalType": "uint256[]",
          "name": "amounts",
          "type": "uint256[]"
        },
        {
          "indexed": true,
          "internalType": "address",
          "name": "to",
          "type": "address"
        }
      ],
      "name": "MintBatch",
      "type": "event"
    },
    {
      "anonymous": false,
      "inputs": [],
      "name": "Pause",
      "type": "event"
    },
    {
      "anonymous": false,
      "inputs": [
        {
          "indexed": false,
          "internalType": "address",
          "name": "account",
          "type": "address"
        }
      ],
      "name": "Paused",
      "type": "event"
    },
    {
      "anonymous": false,
      "inputs": [
        {
          "indexed": true,
          "internalType": "bytes32",
          "name": "role",
          "type": "bytes32"
        },
        {
          "indexed": false,
          "internalType": "address",
          "name": "account",
          "type": "address"
        }
      ],
      "name": "RenounceRole",
      "type": "event"
    },
    {
      "anonymous": false,
      "inputs": [
        {
          "indexed": true,
          "internalType": "bytes32[]",
          "name": "roles",
          "type": "bytes32[]"
        },
        {
          "indexed": false,
          "internalType": "address[]",
          "name": "accounts",
          "type": "address[]"
        }
      ],
      "name": "RevokeMultiRole",
      "type": "event"
    },
    {
      "anonymous": false,
      "inputs": [
        {
          "indexed": true,
          "internalType": "bytes32",
          "name": "role",
          "type": "bytes32"
        },
        {
          "indexed": false,
          "internalType": "address",
          "name": "account",
          "type": "address"
        }
      ],
      "name": "RevokeRole",
      "type": "event"
    },
    {
      "anonymous": false,
      "inputs": [
        {
          "indexed": true,
          "internalType": "bytes32",
          "name": "role",
          "type": "bytes32"
        },
        {
          "indexed": true,
          "internalType": "bytes32",
          "name": "previousAdminRole",
          "type": "bytes32"
        },
        {
          "indexed": true,
          "internalType": "bytes32",
          "name": "newAdminRole",
          "type": "bytes32"
        }
      ],
      "name": "RoleAdminChanged",
      "type": "event"
    },
    {
      "anonymous": false,
      "inputs": [
        {
          "indexed": true,
          "internalType": "bytes32",
          "name": "role",
          "type": "bytes32"
        },
        {
          "indexed": true,
          "internalType": "address",
          "name": "account",
          "type": "address"
        },
        {
          "indexed": true,
          "internalType": "address",
          "name": "sender",
          "type": "address"
        }
      ],
      "name": "RoleGranted",
      "type": "event"
    },
    {
      "anonymous": false,
      "inputs": [
        {
          "indexed": true,
          "internalType": "bytes32",
          "name": "role",
          "type": "bytes32"
        },
        {
          "indexed": true,
          "internalType": "address",
          "name": "account",
          "type": "address"
        },
        {
          "indexed": true,
          "internalType": "address",
          "name": "sender",
          "type": "address"
        }
      ],
      "name": "RoleRevoked",
      "type": "event"
    },
    {
      "anonymous": false,
      "inputs": [
        {
          "indexed": true,
          "internalType": "address",
          "name": "operator",
          "type": "address"
        },
        {
          "indexed": true,
          "internalType": "address",
          "name": "from",
          "type": "address"
        },
        {
          "indexed": true,
          "internalType": "address",
          "name": "to",
          "type": "address"
        },
        {
          "indexed": false,
          "internalType": "uint256[]",
          "name": "ids",
          "type": "uint256[]"
        },
        {
          "indexed": false,
          "internalType": "uint256[]",
          "name": "values",
          "type": "uint256[]"
        }
      ],
      "name": "TransferBatch",
      "type": "event"
    },
    {
      "anonymous": false,
      "inputs": [
        {
          "indexed": true,
          "internalType": "address",
          "name": "operator",
          "type": "address"
        },
        {
          "indexed": true,
          "internalType": "address",
          "name": "from",
          "type": "address"
        },
        {
          "indexed": true,
          "internalType": "address",
          "name": "to",
          "type": "address"
        },
        {
          "indexed": false,
          "internalType": "uint256",
          "name": "id",
          "type": "uint256"
        },
        {
          "indexed": false,
          "internalType": "uint256",
          "name": "value",
          "type": "uint256"
        }
      ],
      "name": "TransferSingle",
      "type": "event"
    },
    {
      "anonymous": false,
      "inputs": [
        {
          "indexed": false,
          "internalType": "string",
          "name": "value",
          "type": "string"
        },
        {
          "indexed": true,
          "internalType": "uint256",
          "name": "id",
          "type": "uint256"
        }
      ],
      "name": "URI",
      "type": "event"
    },
    {
      "anonymous": false,
      "inputs": [],
      "name": "UnLockTokenTransfer",
      "type": "event"
    },
    {
      "anonymous": false,
      "inputs": [],
      "name": "Unpause",
      "type": "event"
    },
    {
      "anonymous": false,
      "inputs": [
        {
          "indexed": false,
          "internalType": "address",
          "name": "account",
          "type": "address"
        }
      ],
      "name": "Unpaused",
      "type": "event"
    },
    {
      "anonymous": false,
      "inputs": [
        {
          "indexed": false,
          "internalType": "string",
          "name": "newUri",
          "type": "string"
        }
      ],
      "name": "UriUpdate",
      "type": "event"
    },
    {
      "inputs": [],
      "name": "ASTEROIDS",
      "outputs": [
        {
          "internalType": "uint256",
          "name": "",
          "type": "uint256"
        }
      ],
      "stateMutability": "view",
      "type": "function"
    },
    {
      "inputs": [],
      "name": "BF_BURN_ROLE",
      "outputs": [
        {
          "internalType": "bytes32",
          "name": "",
          "type": "bytes32"
        }
      ],
      "stateMutability": "view",
      "type": "function"
    },
    {
      "inputs": [],
      "name": "BF_MINT_ROLE",
      "outputs": [
        {
          "internalType": "bytes32",
          "name": "",
          "type": "bytes32"
        }
      ],
      "stateMutability": "view",
      "type": "function"
    },
    {
      "inputs": [],
      "name": "CAN_PAUSE_ROLE",
      "outputs": [
        {
          "internalType": "bytes32",
          "name": "",
          "type": "bytes32"
        }
      ],
      "stateMutability": "view",
      "type": "function"
    },
    {
      "inputs": [],
      "name": "CAN_UNPAUSE_ROLE",
      "outputs": [
        {
          "internalType": "bytes32",
          "name": "",
          "type": "bytes32"
        }
      ],
      "stateMutability": "view",
      "type": "function"
    },
    {
      "inputs": [],
      "name": "DECORATIONS_BURN_ROLE",
      "outputs": [
        {
          "internalType": "bytes32",
          "name": "",
          "type": "bytes32"
        }
      ],
      "stateMutability": "view",
      "type": "function"
    },
    {
      "inputs": [],
      "name": "DECORATIONS_MINT_ROLE",
      "outputs": [
        {
          "internalType": "bytes32",
          "name": "",
          "type": "bytes32"
        }
      ],
      "stateMutability": "view",
      "type": "function"
    },
    {
      "inputs": [],
      "name": "DEFAULT_ADMIN_ROLE",
      "outputs": [
        {
          "internalType": "bytes32",
          "name": "",
          "type": "bytes32"
        }
      ],
      "stateMutability": "view",
      "type": "function"
    },
    {
      "inputs": [],
      "name": "DOUBLOONS",
      "outputs": [
        {
          "internalType": "uint256",
          "name": "",
          "type": "uint256"
        }
      ],
      "stateMutability": "view",
      "type": "function"
    },
    {
      "inputs": [],
      "name": "ITEMS_BURN_ROLE",
      "outputs": [
        {
          "internalType": "bytes32",
          "name": "",
          "type": "bytes32"
        }
      ],
      "stateMutability": "view",
      "type": "function"
    },
    {
      "inputs": [],
      "name": "ITEMS_MINT_ROLE",
      "outputs": [
        {
          "internalType": "bytes32",
          "name": "",
          "type": "bytes32"
        }
      ],
      "stateMutability": "view",
      "type": "function"
    },
    {
      "inputs": [],
      "name": "STK_ASTEROIDS",
      "outputs": [
        {
          "internalType": "uint256",
          "name": "",
          "type": "uint256"
        }
      ],
      "stateMutability": "view",
      "type": "function"
    },
    {
      "inputs": [],
      "name": "TITLES_BURN_ROLE",
      "outputs": [
        {
          "internalType": "bytes32",
          "name": "",
          "type": "bytes32"
        }
      ],
      "stateMutability": "view",
      "type": "function"
    },
    {
      "inputs": [],
      "name": "TITLES_MINT_ROLE",
      "outputs": [
        {
          "internalType": "bytes32",
          "name": "",
          "type": "bytes32"
        }
      ],
      "stateMutability": "view",
      "type": "function"
    },
    {
      "inputs": [],
      "name": "TRANSFERABLE_SETTER_ROLE",
      "outputs": [
        {
          "internalType": "bytes32",
          "name": "",
          "type": "bytes32"
        }
      ],
      "stateMutability": "view",
      "type": "function"
    },
    {
      "inputs": [],
      "name": "URI_SETTER_ROLE",
      "outputs": [
        {
          "internalType": "bytes32",
          "name": "",
          "type": "bytes32"
        }
      ],
      "stateMutability": "view",
      "type": "function"
    },
    {
      "inputs": [],
      "name": "VE_ASTEROIDS",
      "outputs": [
        {
          "internalType": "uint256",
          "name": "",
          "type": "uint256"
        }
      ],
      "stateMutability": "view",
      "type": "function"
    },
    {
      "inputs": [],
      "name": "WRAPPED_BURN_ROLE",
      "outputs": [
        {
          "internalType": "bytes32",
          "name": "",
          "type": "bytes32"
        }
      ],
      "stateMutability": "view",
      "type": "function"
    },
    {
      "inputs": [],
      "name": "WRAPPED_MINT_ROLE",
      "outputs": [
        {
          "internalType": "bytes32",
          "name": "",
          "type": "bytes32"
        }
      ],
      "stateMutability": "view",
      "type": "function"
    },
    {
      "inputs": [
        {
          "internalType": "address",
          "name": "account",
          "type": "address"
        },
        {
          "internalType": "uint256",
          "name": "id",
          "type": "uint256"
        }
      ],
      "name": "balanceOf",
      "outputs": [
        {
          "internalType": "uint256",
          "name": "",
          "type": "uint256"
        }
      ],
      "stateMutability": "view",
      "type": "function"
    },
    {
      "inputs": [
        {
          "internalType": "address[]",
          "name": "accounts",
          "type": "address[]"
        },
        {
          "internalType": "uint256[]",
          "name": "ids",
          "type": "uint256[]"
        }
      ],
      "name": "balanceOfBatch",
      "outputs": [
        {
          "internalType": "uint256[]",
          "name": "",
          "type": "uint256[]"
        }
      ],
      "stateMutability": "view",
      "type": "function"
    },
    {
      "inputs": [
        {
          "internalType": "address",
          "name": "from",
          "type": "address"
        },
        {
          "internalType": "uint256",
          "name": "id",
          "type": "uint256"
        },
        {
          "internalType": "uint256",
          "name": "amount",
          "type": "uint256"
        }
      ],
      "name": "burn",
      "outputs": [],
      "stateMutability": "nonpayable",
      "type": "function"
    },
    {
      "inputs": [
        {
          "internalType": "address",
          "name": "from",
          "type": "address"
        },
        {
          "internalType": "uint256[]",
          "name": "ids",
          "type": "uint256[]"
        },
        {
          "internalType": "uint256[]",
          "name": "amounts",
          "type": "uint256[]"
        }
      ],
      "name": "burnBatch",
      "outputs": [],
      "stateMutability": "nonpayable",
      "type": "function"
    },
    {
      "inputs": [
        {
          "internalType": "uint256",
          "name": "id",
          "type": "uint256"
        }
      ],
      "name": "canBeTransferred",
      "outputs": [
        {
          "internalType": "bool",
          "name": "",
          "type": "bool"
        }
      ],
      "stateMutability": "view",
      "type": "function"
    },
    {
      "inputs": [
        {
          "internalType": "uint256",
          "name": "id",
          "type": "uint256"
        }
      ],
      "name": "exists",
      "outputs": [
        {
          "internalType": "bool",
          "name": "",
          "type": "bool"
        }
      ],
      "stateMutability": "view",
      "type": "function"
    },
    {
      "inputs": [
        {
          "internalType": "bytes32",
          "name": "role",
          "type": "bytes32"
        }
      ],
      "name": "getRoleAdmin",
      "outputs": [
        {
          "internalType": "bytes32",
          "name": "",
          "type": "bytes32"
        }
      ],
      "stateMutability": "view",
      "type": "function"
    },
    {
      "inputs": [
        {
          "internalType": "bytes32[]",
          "name": "roles",
          "type": "bytes32[]"
        },
        {
          "internalType": "address[]",
          "name": "accounts",
          "type": "address[]"
        }
      ],
      "name": "grantMultiRole",
      "outputs": [],
      "stateMutability": "nonpayable",
      "type": "function"
    },
    {
      "inputs": [
        {
          "internalType": "bytes32",
          "name": "role",
          "type": "bytes32"
        },
        {
          "internalType": "address",
          "name": "account",
          "type": "address"
        }
      ],
      "name": "grantRole",
      "outputs": [],
      "stateMutability": "nonpayable",
      "type": "function"
    },
    {
      "inputs": [
        {
          "internalType": "bytes32",
          "name": "role",
          "type": "bytes32"
        },
        {
          "internalType": "address",
          "name": "account",
          "type": "address"
        }
      ],
      "name": "hasRole",
      "outputs": [
        {
          "internalType": "bool",
          "name": "",
          "type": "bool"
        }
      ],
      "stateMutability": "view",
      "type": "function"
    },
    {
      "inputs": [
        {
          "internalType": "address",
          "name": "account",
          "type": "address"
        },
        {
          "internalType": "address",
          "name": "operator",
          "type": "address"
        }
      ],
      "name": "isApprovedForAll",
      "outputs": [
        {
          "internalType": "bool",
          "name": "",
          "type": "bool"
        }
      ],
      "stateMutability": "view",
      "type": "function"
    },
    {
      "inputs": [
        {
          "internalType": "uint256",
          "name": "id",
          "type": "uint256"
        }
      ],
      "name": "lockTokenTransfer",
      "outputs": [],
      "stateMutability": "nonpayable",
      "type": "function"
    },
    {
      "inputs": [
        {
          "internalType": "address",
          "name": "to",
          "type": "address"
        },
        {
          "internalType": "uint256",
          "name": "id",
          "type": "uint256"
        },
        {
          "internalType": "uint256",
          "name": "amount",
          "type": "uint256"
        }
      ],
      "name": "mint",
      "outputs": [],
      "stateMutability": "nonpayable",
      "type": "function"
    },
    {
      "inputs": [
        {
          "internalType": "address",
          "name": "to",
          "type": "address"
        },
        {
          "internalType": "uint256[]",
          "name": "ids",
          "type": "uint256[]"
        },
        {
          "internalType": "uint256[]",
          "name": "amounts",
          "type": "uint256[]"
        }
      ],
      "name": "mintBatch",
      "outputs": [],
      "stateMutability": "nonpayable",
      "type": "function"
    },
    {
      "inputs": [],
      "name": "pause",
      "outputs": [],
      "stateMutability": "nonpayable",
      "type": "function"
    },
    {
      "inputs": [],
      "name": "paused",
      "outputs": [
        {
          "internalType": "bool",
          "name": "",
          "type": "bool"
        }
      ],
      "stateMutability": "view",
      "type": "function"
    },
    {
      "inputs": [
        {
          "internalType": "bytes32",
          "name": "role",
          "type": "bytes32"
        },
        {
          "internalType": "address",
          "name": "account",
          "type": "address"
        }
      ],
      "name": "renounceRole",
      "outputs": [],
      "stateMutability": "nonpayable",
      "type": "function"
    },
    {
      "inputs": [
        {
          "internalType": "bytes32[]",
          "name": "roles",
          "type": "bytes32[]"
        },
        {
          "internalType": "address[]",
          "name": "accounts",
          "type": "address[]"
        }
      ],
      "name": "revokeMultiRole",
      "outputs": [],
      "stateMutability": "nonpayable",
      "type": "function"
    },
    {
      "inputs": [
        {
          "internalType": "bytes32",
          "name": "role",
          "type": "bytes32"
        },
        {
          "internalType": "address",
          "name": "account",
          "type": "address"
        }
      ],
      "name": "revokeRole",
      "outputs": [],
      "stateMutability": "nonpayable",
      "type": "function"
    },
    {
      "inputs": [
        {
          "internalType": "address",
          "name": "from",
          "type": "address"
        },
        {
          "internalType": "address",
          "name": "to",
          "type": "address"
        },
        {
          "internalType": "uint256[]",
          "name": "ids",
          "type": "uint256[]"
        },
        {
          "internalType": "uint256[]",
          "name": "amounts",
          "type": "uint256[]"
        },
        {
          "internalType": "bytes",
          "name": "data",
          "type": "bytes"
        }
      ],
      "name": "safeBatchTransferFrom",
      "outputs": [],
      "stateMutability": "nonpayable",
      "type": "function"
    },
    {
      "inputs": [
        {
          "internalType": "address",
          "name": "from",
          "type": "address"
        },
        {
          "internalType": "address",
          "name": "to",
          "type": "address"
        },
        {
          "internalType": "uint256",
          "name": "id",
          "type": "uint256"
        },
        {
          "internalType": "uint256",
          "name": "amount",
          "type": "uint256"
        },
        {
          "internalType": "bytes",
          "name": "data",
          "type": "bytes"
        }
      ],
      "name": "safeTransferFrom",
      "outputs": [],
      "stateMutability": "nonpayable",
      "type": "function"
    },
    {
      "inputs": [
        {
          "internalType": "address",
          "name": "operator",
          "type": "address"
        },
        {
          "internalType": "bool",
          "name": "approved",
          "type": "bool"
        }
      ],
      "name": "setApprovalForAll",
      "outputs": [],
      "stateMutability": "nonpayable",
      "type": "function"
    },
    {
      "inputs": [
        {
          "internalType": "string",
          "name": "newUri",
          "type": "string"
        }
      ],
      "name": "setURI",
      "outputs": [],
      "stateMutability": "nonpayable",
      "type": "function"
    },
    {
      "inputs": [
        {
          "internalType": "bytes4",
          "name": "interfaceId",
          "type": "bytes4"
        }
      ],
      "name": "supportsInterface",
      "outputs": [
        {
          "internalType": "bool",
          "name": "",
          "type": "bool"
        }
      ],
      "stateMutability": "view",
      "type": "function"
    },
    {
      "inputs": [
        {
          "internalType": "uint256",
          "name": "id",
          "type": "uint256"
        }
      ],
      "name": "totalSupply",
      "outputs": [
        {
          "internalType": "uint256",
          "name": "",
          "type": "uint256"
        }
      ],
      "stateMutability": "view",
      "type": "function"
    },
    {
      "inputs": [
        {
          "internalType": "uint256",
          "name": "id",
          "type": "uint256"
        }
      ],
      "name": "unLockTokenTransfer",
      "outputs": [],
      "stateMutability": "nonpayable",
      "type": "function"
    },
    {
      "inputs": [],
      "name": "unpause",
      "outputs": [],
      "stateMutability": "nonpayable",
      "type": "function"
    },
    {
      "inputs": [
        {
          "internalType": "uint256",
          "name": "id",
          "type": "uint256"
        }
      ],
      "name": "uri",
      "outputs": [
        {
          "internalType": "string",
          "name": "",
          "type": "string"
        }
      ],
      "stateMutability": "view",
      "type": "function"
    }
  ],
  "bytecode": "0x60806040523480156200001157600080fd5b50d380156200001f57600080fd5b50d280156200002d57600080fd5b50604051620045dd380380620045dd833981016040819052620000509162000898565b6000805460ff19169055806200006681620000d6565b506200009533600169d3c21bcecceda100000060405180602001604052806000815250620000ef60201b60201c565b620000c233600268056bc75e2d6310000060405180602001604052806000815250620000ef60201b60201c565b620000cf60003362000224565b5062000b8a565b8051620000eb906005906020840190620007bf565b5050565b6001600160a01b038416620001555760405162461bcd60e51b815260206004820152602160248201527f455243313135353a206d696e7420746f20746865207a65726f206164647265736044820152607360f81b60648201526084015b60405180910390fd5b336000620001638562000230565b90506000620001728562000230565b905062000185836000898585896200027e565b60008681526002602090815260408083206001600160a01b038b16845290915281208054879290620001b9908490620009c4565b909155505060408051878152602081018790526001600160a01b03808a1692600092918716917fc3d58168c5ae7397731d063d5bbf3d657854427343f4c083240f7aacaa2d0f62910160405180910390a46200021b8360008989898962000552565b50505050505050565b620000eb82826200071b565b604080516001808252818301909252606091600091906020808301908036833701905050905082816000815181106200026d576200026d62000ab2565b602090810291909101015292915050565b60005460ff1615620002e85760405162461bcd60e51b815260206004820152602c60248201527f455243313135355061757361626c653a20746f6b656e207472616e736665722060448201526b1dda1a5b19481c185d5cd95960a21b60648201526084016200014c565b6001600160a01b038516158015906200030957506001600160a01b03841615155b15620003b75760005b8351811015620003b5576004600085838151811062000335576200033562000ab2565b60209081029190910181015182528101919091526040016000205460ff1615620003a25760405162461bcd60e51b815260206004820152601f60248201527f455243313135353a20746f6b656e206e6f74207472616e7366657261626c650060448201526064016200014c565b620003ad8162000a7e565b905062000312565b505b6001600160a01b0385166200044b5760005b83518110156200044957828181518110620003e857620003e862000ab2565b60200260200101516001600086848151811062000409576200040962000ab2565b602002602001015181526020019081526020016000206000828254620004309190620009c4565b909155506200044190508162000a7e565b9050620003c9565b505b6001600160a01b0384166200054a5760005b83518110156200021b5760008482815181106200047e576200047e62000ab2565b6020026020010151905060008483815181106200049f576200049f62000ab2565b6020026020010151905060006001600084815260200190815260200160002054905081811015620005245760405162461bcd60e51b815260206004820152602860248201527f455243313135353a206275726e20616d6f756e74206578636565647320746f74604482015267616c537570706c7960c01b60648201526084016200014c565b60009283526001602052604090922091039055620005428162000a7e565b90506200045d565b505050505050565b836001600160a01b0316d4156200054a5760405163f23a6e6160e01b81526001600160a01b0385169063f23a6e619062000599908990899088908890889060040162000968565b602060405180830381600087803b158015620005b457600080fd5b505af1925050508015620005e7575060408051601f3d908101601f19168201909252620005e49181019062000865565b60015b620006a857620005f662000ade565b806308c379a014156200063757506200060e62000afb565b806200061b575062000639565b8060405162461bcd60e51b81526004016200014c9190620009af565b505b60405162461bcd60e51b815260206004820152603460248201527f455243313135353a207472616e7366657220746f206e6f6e204552433131353560448201527f526563656976657220696d706c656d656e74657200000000000000000000000060648201526084016200014c565b6001600160e01b0319811663f23a6e6160e01b146200021b5760405162461bcd60e51b815260206004820152602860248201527f455243313135353a204552433131353552656365697665722072656a656374656044820152676420746f6b656e7360c01b60648201526084016200014c565b60008281526006602090815260408083206001600160a01b038516845290915290205460ff16620000eb5760008281526006602090815260408083206001600160a01b03851684529091529020805460ff191660011790556200077b3390565b6001600160a01b0316816001600160a01b0316837f2f8788117e7eff1d82e926ec794901d17c78024a50270940304540a733656f0d60405160405180910390a45050565b828054620007cd9062000a12565b90600052602060002090601f016020900481019282620007f157600085556200083c565b82601f106200080c57805160ff19168380011785556200083c565b828001600101855582156200083c579182015b828111156200083c5782518255916020019190600101906200081f565b506200084a9291506200084e565b5090565b5b808211156200084a57600081556001016200084f565b6000602082840312156200087857600080fd5b81516001600160e01b0319811681146200089157600080fd5b9392505050565b600060208284031215620008ab57600080fd5b81516001600160401b0380821115620008c357600080fd5b818401915084601f830112620008d857600080fd5b815181811115620008ed57620008ed62000ac8565b604051915062000908601f8201601f19166020018362000a4f565b8082528560208285010111156200091e57600080fd5b62000931816020840160208601620009df565b50949350505050565b6000815180845262000954816020860160208601620009df565b601f01601f19169290920160200192915050565b6001600160a01b03868116825285166020820152604081018490526060810183905260a060808201819052600090620009a4908301846200093a565b979650505050505050565b6020815260006200089160208301846200093a565b60008219821115620009da57620009da62000a9c565b500190565b60005b83811015620009fc578181015183820152602001620009e2565b8381111562000a0c576000848401525b50505050565b600181811c9082168062000a2757607f821691505b6020821081141562000a4957634e487b7160e01b600052602260045260246000fd5b50919050565b601f8201601f191681016001600160401b038111828210171562000a775762000a7762000ac8565b6040525050565b600060001982141562000a955762000a9562000a9c565b5060010190565b634e487b7160e01b600052601160045260246000fd5b634e487b7160e01b600052603260045260246000fd5b634e487b7160e01b600052604160045260246000fd5b600060033d111562000af85760046000803e5060005160e01c5b90565b600060443d101562000b0a5790565b6040516003193d81016004833e81513d6001600160401b03808311602484018310171562000b3a57505050505090565b828501915081518181111562000b535750505050505090565b843d870101602082850101111562000b6e5750505050505090565b62000b7f6020828601018762000a4f565b509095945050505050565b613a438062000b9a6000396000f3fe608060405234801561001057600080fd5b50d3801561001d57600080fd5b50d2801561002a57600080fd5b50600436106102ae5760003560e01c80637f34571011610181578063c68c44ff116100e8578063e622f4b1116100a1578063e622f4b1146106e9578063e9098d9c146106fc578063e985e9c514610723578063f242432a1461075f578063f4481de014610772578063f5298aca1461078557600080fd5b8063c68c44ff14610649578063c89999d014610651578063c971b18c14610675578063d547741f1461069c578063d81d0a15146106af578063e00b587a146106c257600080fd5b8063a22cb4651161013a578063a22cb4651461058e578063a8ee0628146105a1578063b517d1cc146105c8578063b5e6f555146105db578063bd85b03914610602578063c67824621461062257600080fd5b80637f345710146104f65780638456cb591461051d57806385d5084b146105255780638fa459e31461054c57806391d1485414610573578063a217fddf1461058657600080fd5b8063380b1d41116102255780634f558e79116101de5780634f558e791461046057806359590b32146104825780635c975abb146104a95780635cd56955146104b45780636712627d146104db5780636b20c454146104e357600080fd5b8063380b1d41146103cf578063391c3891146103f65780633c71cfa2146104095780633f4ba83a1461041157806347b291cd146104195780634e1273f41461044057600080fd5b8063156e29f611610277578063156e29f614610358578063248a9ca31461036b5780632eb2c2d61461038e5780632f2ff15d146103a157806331e61ea6146103b457806336568abe146103bc57600080fd5b8062fdd58e146102b357806301ffc9a7146102d957806302fe5305146102fc5780630e89341c14610311578063124130b714610331575b600080fd5b6102c66102c1366004612f6c565b610798565b6040519081526020015b60405180910390f35b6102ec6102e7366004613140565b610830565b60405190151581526020016102d0565b61030f61030a36600461317a565b610841565b005b61032461031f366004613104565b6108af565b6040516102d09190613511565b6102c67fae196802966ddb0eed808e030e9905b906ad173665ebaa4ec3254544456d188e81565b61030f610366366004612f96565b610950565b6102c6610379366004613104565b60009081526006602052604090206001015490565b61030f61039c366004612da3565b6109c0565b61030f6103af36600461311d565b610a57565b6102c6600381565b61030f6103ca36600461311d565b610ac0565b6102c67f77fe00f5aaa81d64d9f55d8616be0398bce160f21a075e1635f854dc0c69a57281565b61030f610404366004613099565b610b3e565b6102c6600481565b61030f610c52565b6102c67fcc0ccd8bd17a2b44b8083daff945bb3afbdb74c75c0d0ade0c1d73872f3da2b781565b61045361044e366004612fc9565b610cb0565b6040516102d091906134d9565b6102ec61046e366004613104565b600090815260016020526040902054151590565b6102c67f5a858fceef8a0916707e3b8d20381bb4869a55f766ca6b98b79a65718c1af55c81565b60005460ff166102ec565b6102c67f7b4d2faaff6bdaace990e24462dcf2739c3533574e81f2cb36eeec6d9d91a63e81565b6102c6600281565b61030f6104f1366004612eb0565b610dd9565b6102c67f7804d923f43a17d325d77e781528e0793b2edd9890ab45fc64efd7b4b427744c81565b61030f610ed7565b6102c67f2b4969f19539c2db676e85f97d2bd9db7c07cb467eb0cd96476827285a03148481565b6102c67f6a5cf4fbc764663782b6c69f42c0b62dfba03c7e30fcffbf9480a5d3db112ef581565b6102ec61058136600461311d565b610f35565b6102c6600081565b61030f61059c366004612f30565b610f60565b6102c67fc9753cc6a12b1d2aa87c7b66743185706ef6ec8328f4ea4f1bb99f0cac77045781565b61030f6105d6366004613104565b610f6b565b6102c67f570fae637af42631540d61792ad6c3a38622f6396680bd058c94992df958932e81565b6102c6610610366004613104565b60009081526001602052604090205490565b6102c67fd1b4dc7e91c020dd9a22a12df8a310edc9b278f858f001ba89798b0309dc366681565b6102c6600181565b6102ec61065f366004613104565b60009081526004602052604090205460ff161590565b6102c67f72275d2d7cdf971af1091b6e0e4e2863c24b00b92a68a8e7184cc5d55ff619e281565b61030f6106aa36600461311d565b610fdb565b61030f6106bd366004612eb0565b61103b565b6102c67f8a971267dda73f2bbe888f9ed240c21afb5a5980f7b1e92aeafaad3880dac52f81565b61030f6106f7366004613104565b611119565b6102c67fd241016ee141eea33ebd00967f7f7843377cf319f71a1070675110119fb86c0181565b6102ec610731366004612d70565b6001600160a01b03918216600090815260036020908152604080832093909416825291909152205460ff1690565b61030f61076d366004612e4c565b611183565b61030f610780366004613099565b6111c8565b61030f610793366004612f96565b6112ac565b60006001600160a01b0383166108085760405162461bcd60e51b815260206004820152602a60248201527f455243313135353a2061646472657373207a65726f206973206e6f742061207660448201526930b634b21037bbb732b960b11b60648201526084015b60405180910390fd5b5060009081526002602090815260408083206001600160a01b03949094168352929052205490565b600061083b82611339565b92915050565b7f7804d923f43a17d325d77e781528e0793b2edd9890ab45fc64efd7b4b427744c61086b8161135e565b6108748261136b565b7ff5812106a5117622bd79cfb5006bd04706a128a2c4830dd03e5f8a17b1eb7483826040516108a39190613511565b60405180910390a15050565b60008181526001602052604090205460609061091e5760405162461bcd60e51b815260206004820152602860248201527f455243313135353a2055524920717565727920666f72206e6f6e657869737465604482015267373a103a37b5b2b760c11b60648201526084016107ff565b60056109298361137e565b60405160200161093a9291906132a7565b6040516020818303038152906040529050919050565b61095982611483565b6109748383836040518060200160405280600081525061169c565b60408051838152602081018390526001600160a01b0385169133917fdbba30eb0402b389513e87f51f4db2db80bed454384ec6925a24097c3548a02a91015b60405180910390a3505050565b6001600160a01b0385163314806109dc57506109dc8533610731565b610a435760405162461bcd60e51b815260206004820152603260248201527f455243313135353a207472616e736665722063616c6c6572206973206e6f74206044820152711bdddb995c881b9bdc88185c1c1c9bdd995960721b60648201526084016107ff565b610a508585858585611787565b5050505050565b600082815260066020526040902060010154610a728161135e565b610a7c8383611934565b6040516001600160a01b038316815283907f5a06360d65acf95e98445dc834f205063424c636e65418d928cdfabc33a95399906020015b60405180910390a2505050565b6001600160a01b0381163314610b305760405162461bcd60e51b815260206004820152602f60248201527f416363657373436f6e74726f6c3a2063616e206f6e6c792072656e6f756e636560448201526e103937b632b9903337b91039b2b63360891b60648201526084016107ff565b610b3a82826119ba565b5050565b828114610b5d5760405162461bcd60e51b81526004016107ff906135f9565b60005b83811015610bfa57610ba2610b9c868684818110610b8057610b80613926565b9050602002013560009081526006602052604090206001015490565b33611a21565b610bea858583818110610bb757610bb7613926565b90506020020135848484818110610bd057610bd0613926565b9050602002016020810190610be59190612d55565b6119ba565b610bf3816138cb565b9050610b60565b508383604051610c0b92919061327b565b60405180910390207fde14d5e6084c46f384087d8cb38584d2d8520dd6248e6e9c14f7cdf2c8246abf8383604051610c44929190613466565b60405180910390a250505050565b7f2b4969f19539c2db676e85f97d2bd9db7c07cb467eb0cd96476827285a031484610c7c8161135e565b610c84611a85565b6040517f7805862f689e2f13df9f062ff482ad3ad112aca9e0847911ed832e158c525b3390600090a150565b60608151835114610d155760405162461bcd60e51b815260206004820152602960248201527f455243313135353a206163636f756e747320616e6420696473206c656e677468604482015268040dad2e6dac2e8c6d60bb1b60648201526084016107ff565b600083516001600160401b03811115610d3057610d3061393c565b604051908082528060200260200182016040528015610d59578160200160208202803683370190505b50905060005b8451811015610dd157610da4858281518110610d7d57610d7d613926565b6020026020010151858381518110610d9757610d97613926565b6020026020010151610798565b828281518110610db657610db6613926565b6020908102919091010152610dca816138cb565b9050610d5f565b509392505050565b6001600160a01b038516331480610df55750610df58533610731565b610e115760405162461bcd60e51b81526004016107ff906135b0565b610e1b8484611b18565b610e898585858080602002602001604051908101604052809392919081815260200183836020028082843760009201919091525050604080516020808902828101820190935288825290935088925087918291850190849080828437600092019190915250611b5992505050565b846001600160a01b03167fc654fa60d2a625ee021b1ac30960810e81f72997250f9fe91c3c443690c47cdf85858585604051610ec894939291906134b2565b60405180910390a25050505050565b7f5a858fceef8a0916707e3b8d20381bb4869a55f766ca6b98b79a65718c1af55c610f018161135e565b610f09611cfa565b6040517f6985a02210a168e66602d3235cb6db0e70f92b3ba4d376a33c0f3d9434bff62590600090a150565b60009182526006602090815260408084206001600160a01b0393909316845291905290205460ff1690565b610b3a338383611d75565b7fae196802966ddb0eed808e030e9905b906ad173665ebaa4ec3254544456d188e610f958161135e565b6000828152600460205260409020805460ff191660011790556040517fb8c06629fdf17815efad9716161b539d85d816e669e6975f41df31006bd834c190600090a15050565b600082815260066020526040902060010154610ff68161135e565b61100083836119ba565b6040516001600160a01b038316815283907f76e6093c136cd7faa5a6d92b2b633f3b4595abd4a529b7a13917398355fea69490602001610ab3565b6110458484611e4e565b6110c18585858080602002602001604051908101604052809392919081815260200183836020028082843760009201919091525050604080516020808902828101820190935288825290935088925087918291850190849080828437600092018290525060408051602081019091529081529250611e8a915050565b846001600160a01b0316336001600160a01b03167fce8f0106078f9672a627da4c89d5493b0f7c05f59bcd228439a9698c00b1b5a78686868660405161110a94939291906134b2565b60405180910390a35050505050565b7fae196802966ddb0eed808e030e9905b906ad173665ebaa4ec3254544456d188e6111438161135e565b600082815260046020526040808220805460ff19169055517ff4d100eb5d3cef841f19482569859f9fd8276efe52b2f27bb9ff6737311e3b639190a15050565b6001600160a01b03851633148061119f575061119f8533610731565b6111bb5760405162461bcd60e51b81526004016107ff906135b0565b610a508585858585611fe5565b8281146111e75760405162461bcd60e51b81526004016107ff906135f9565b60005b838110156112625761120a610b9c868684818110610b8057610b80613926565b61125285858381811061121f5761121f613926565b9050602002013584848481811061123857611238613926565b905060200201602081019061124d9190612d55565b611934565b61125b816138cb565b90506111ea565b50838360405161127392919061327b565b60405180910390207f75769898739b7fdc3a176bbde571a58229366802081bf5a21a9736473a17d95e8383604051610c44929190613466565b6001600160a01b0383163314806112c857506112c88333610731565b6112e45760405162461bcd60e51b81526004016107ff906135b0565b6112ed82612121565b6112f8838383612322565b60408051838152602081018390526001600160a01b038516917f49995e5dd6158cf69ad3e9777c46755a1a826a446c6416992167462dad033b2a9101610ab3565b60006001600160e01b03198216637965db0b60e01b148061083b575061083b8261243e565b6113688133611a21565b50565b8051610b3a906005906020840190612b55565b6060816113a25750506040805180820190915260018152600360fc1b602082015290565b8160005b81156113cc57806113b6816138cb565b91506113c59050600a836137d7565b91506113a6565b6000816001600160401b038111156113e6576113e661393c565b6040519080825280601f01601f191660200182016040528015611410576020820181803683370190505b5090505b841561147b5761142560018361380a565b9150611432600a866138e6565b61143d9060306137bf565b60f81b81838151811061145257611452613926565b60200101906001600160f81b031916908160001a905350611474600a866137d7565b9450611414565b949350505050565b6040516f1352539517d493d31157d193d497d25160821b6020820152603081018290526114ca906050015b6040516020818303038152906040528051906020012033610f35565b156114d25750565b60c781111580156114e4575060648110155b801561151557506115157f570fae637af42631540d61792ad6c3a38622f6396680bd058c94992df958932e33610f35565b1561151d5750565b61270f811115801561153157506103e88110155b801561156257506115627f8a971267dda73f2bbe888f9ed240c21afb5a5980f7b1e92aeafaad3880dac52f33610f35565b1561156a5750565b614e1f811115801561157e57506127108110155b80156115af57506115af7fd241016ee141eea33ebd00967f7f7843377cf319f71a1070675110119fb86c0133610f35565b156115b75750565b6201869f81111580156115cc5750614e208110155b80156115fd57506115fd7f77fe00f5aaa81d64d9f55d8616be0398bce160f21a075e1635f854dc0c69a57233610f35565b156116055750565b62030d3f811115801561161b5750620186a08110155b801561164c575061164c7f6a5cf4fbc764663782b6c69f42c0b62dfba03c7e30fcffbf9480a5d3db112ef533610f35565b156116545750565b60405162461bcd60e51b815260206004820181905260248201527f416363657373436f6e74726f6c3a206d697373696e67206d696e7420726f6c6560448201526064016107ff565b6001600160a01b0384166116c25760405162461bcd60e51b81526004016107ff9061375b565b3360006116ce8561248e565b905060006116db8561248e565b90506116ec836000898585896124d9565b60008681526002602090815260408083206001600160a01b038b1684529091528120805487929061171e9084906137bf565b909155505060408051878152602081018790526001600160a01b03808a1692600092918716917fc3d58168c5ae7397731d063d5bbf3d657854427343f4c083240f7aacaa2d0f62910160405180910390a461177e8360008989898961277e565b50505050505050565b81518351146117a85760405162461bcd60e51b81526004016107ff90613713565b6001600160a01b0384166117ce5760405162461bcd60e51b81526004016107ff90613641565b336117dd8187878787876124d9565b60005b84518110156118c65760008582815181106117fd576117fd613926565b60200260200101519050600085838151811061181b5761181b613926565b60209081029190910181015160008481526002835260408082206001600160a01b038e16835290935291909120549091508181101561186c5760405162461bcd60e51b81526004016107ff906136c9565b60008381526002602090815260408083206001600160a01b038e8116855292528083208585039055908b168252812080548492906118ab9084906137bf565b92505081905550505050806118bf906138cb565b90506117e0565b50846001600160a01b0316866001600160a01b0316826001600160a01b03167f4a39dc06d4c0dbc64b70af90fd698a233a518aa5d07e595d983b8c0526c8f7fb87876040516119169291906134ec565b60405180910390a461192c8187878787876128e9565b505050505050565b61193e8282610f35565b610b3a5760008281526006602090815260408083206001600160a01b03851684529091529020805460ff191660011790556119763390565b6001600160a01b0316816001600160a01b0316837f2f8788117e7eff1d82e926ec794901d17c78024a50270940304540a733656f0d60405160405180910390a45050565b6119c48282610f35565b15610b3a5760008281526006602090815260408083206001600160a01b0385168085529252808320805460ff1916905551339285917ff6391f5c32d9c69d2a47ea670b442974b53935d1edc7fd64eb21e047a839171b9190a45050565b611a2b8282610f35565b610b3a57611a43816001600160a01b031660146129b3565b611a4e8360206129b3565b604051602001611a5f92919061334e565b60408051601f198184030181529082905262461bcd60e51b82526107ff91600401613511565b60005460ff16611ace5760405162461bcd60e51b815260206004820152601460248201527314185d5cd8589b194e881b9bdd081c185d5cd95960621b60448201526064016107ff565b6000805460ff191690557f5db9ee0a495bf2e6ff9c91a7834c1ba4fdd244a5e8aa4e537bd38aeae4b073aa335b6040516001600160a01b03909116815260200160405180910390a1565b60005b81811015611b5457611b44838383818110611b3857611b38613926565b90506020020135612121565b611b4d816138cb565b9050611b1b565b505050565b6001600160a01b038316611b7f5760405162461bcd60e51b81526004016107ff90613686565b8051825114611ba05760405162461bcd60e51b81526004016107ff90613713565b6000339050611bc3818560008686604051806020016040528060008152506124d9565b60005b8351811015611c8b576000848281518110611be357611be3613926565b602002602001015190506000848381518110611c0157611c01613926565b60209081029190910181015160008481526002835260408082206001600160a01b038c168352909352919091205490915081811015611c525760405162461bcd60e51b81526004016107ff9061356c565b60009283526002602090815260408085206001600160a01b038b1686529091529092209103905580611c83816138cb565b915050611bc6565b5060006001600160a01b0316846001600160a01b0316826001600160a01b03167f4a39dc06d4c0dbc64b70af90fd698a233a518aa5d07e595d983b8c0526c8f7fb8686604051611cdc9291906134ec565b60405180910390a46040805160208101909152600090525b50505050565b60005460ff1615611d405760405162461bcd60e51b815260206004820152601060248201526f14185d5cd8589b194e881c185d5cd95960821b60448201526064016107ff565b6000805460ff191660011790557f62e78cea01bee320cd4e420270b5ea74000d11b0c9f74754ebdbfc544b05a258611afb3390565b816001600160a01b0316836001600160a01b03161415611de95760405162461bcd60e51b815260206004820152602960248201527f455243313135353a2073657474696e6720617070726f76616c20737461747573604482015268103337b91039b2b63360b91b60648201526084016107ff565b6001600160a01b03838116600081815260036020908152604080832094871680845294825291829020805460ff191686151590811790915591519182527f17307eab39ab6107e8899845ad3d59bd9653f200f220920489ca2b5937696c3191016109b3565b60005b81811015611b5457611e7a838383818110611e6e57611e6e613926565b90506020020135611483565b611e83816138cb565b9050611e51565b6001600160a01b038416611eb05760405162461bcd60e51b81526004016107ff9061375b565b8151835114611ed15760405162461bcd60e51b81526004016107ff90613713565b33611ee1816000878787876124d9565b60005b8451811015611f7d57838181518110611eff57611eff613926565b602002602001015160026000878481518110611f1d57611f1d613926565b602002602001015181526020019081526020016000206000886001600160a01b03166001600160a01b031681526020019081526020016000206000828254611f6591906137bf565b90915550819050611f75816138cb565b915050611ee4565b50846001600160a01b031660006001600160a01b0316826001600160a01b03167f4a39dc06d4c0dbc64b70af90fd698a233a518aa5d07e595d983b8c0526c8f7fb8787604051611fce9291906134ec565b60405180910390a4610a50816000878787876128e9565b6001600160a01b03841661200b5760405162461bcd60e51b81526004016107ff90613641565b3360006120178561248e565b905060006120248561248e565b90506120348389898585896124d9565b60008681526002602090815260408083206001600160a01b038c168452909152902054858110156120775760405162461bcd60e51b81526004016107ff906136c9565b60008781526002602090815260408083206001600160a01b038d8116855292528083208985039055908a168252812080548892906120b69084906137bf565b909155505060408051888152602081018890526001600160a01b03808b16928c821692918816917fc3d58168c5ae7397731d063d5bbf3d657854427343f4c083240f7aacaa2d0f62910160405180910390a4612116848a8a8a8a8a61277e565b505050505050505050565b6040516f1095549397d493d31157d193d497d25160821b602082015260308101829052612150906050016114ae565b156121585750565b60c7811115801561216a575060648110155b801561219b575061219b7fcc0ccd8bd17a2b44b8083daff945bb3afbdb74c75c0d0ade0c1d73872f3da2b733610f35565b156121a35750565b61270f81111580156121b757506103e88110155b80156121e857506121e87fc9753cc6a12b1d2aa87c7b66743185706ef6ec8328f4ea4f1bb99f0cac77045733610f35565b156121f05750565b614e1f811115801561220457506127108110155b801561223557506122357f7b4d2faaff6bdaace990e24462dcf2739c3533574e81f2cb36eeec6d9d91a63e33610f35565b1561223d5750565b6201869f81111580156122525750614e208110155b801561228357506122837fd1b4dc7e91c020dd9a22a12df8a310edc9b278f858f001ba89798b0309dc366633610f35565b1561228b5750565b62030d3f81111580156122a15750620186a08110155b80156122d257506122d27f72275d2d7cdf971af1091b6e0e4e2863c24b00b92a68a8e7184cc5d55ff619e233610f35565b156122da5750565b60405162461bcd60e51b815260206004820181905260248201527f416363657373436f6e74726f6c3a206d697373696e67206275726e20726f6c6560448201526064016107ff565b6001600160a01b0383166123485760405162461bcd60e51b81526004016107ff90613686565b3360006123548461248e565b905060006123618461248e565b9050612381838760008585604051806020016040528060008152506124d9565b60008581526002602090815260408083206001600160a01b038a168452909152902054848110156123c45760405162461bcd60e51b81526004016107ff9061356c565b60008681526002602090815260408083206001600160a01b038b81168086529184528285208a8703905582518b81529384018a90529092908816917fc3d58168c5ae7397731d063d5bbf3d657854427343f4c083240f7aacaa2d0f62910160405180910390a460408051602081019091526000905261177e565b60006001600160e01b03198216636cdb3d1360e11b148061246f57506001600160e01b031982166303a24d0760e21b145b8061083b57506301ffc9a760e01b6001600160e01b031983161461083b565b604080516001808252818301909252606091600091906020808301908036833701905050905082816000815181106124c8576124c8613926565b602090810291909101015292915050565b60005460ff16156125415760405162461bcd60e51b815260206004820152602c60248201527f455243313135355061757361626c653a20746f6b656e207472616e736665722060448201526b1dda1a5b19481c185d5cd95960a21b60648201526084016107ff565b6001600160a01b0385161580159061256157506001600160a01b03841615155b156126055760005b8351811015612603576004600085838151811061258857612588613926565b60209081029190910181015182528101919091526040016000205460ff16156125f35760405162461bcd60e51b815260206004820152601f60248201527f455243313135353a20746f6b656e206e6f74207472616e7366657261626c650060448201526064016107ff565b6125fc816138cb565b9050612569565b505b6001600160a01b03851661268c5760005b835181101561268a5782818151811061263157612631613926565b60200260200101516001600086848151811061264f5761264f613926565b60200260200101518152602001908152602001600020600082825461267491906137bf565b909155506126839050816138cb565b9050612616565b505b6001600160a01b03841661192c5760005b835181101561177e5760008482815181106126ba576126ba613926565b6020026020010151905060008483815181106126d8576126d8613926565b602002602001015190506000600160008481526020019081526020016000205490508181101561275b5760405162461bcd60e51b815260206004820152602860248201527f455243313135353a206275726e20616d6f756e74206578636565647320746f74604482015267616c537570706c7960c01b60648201526084016107ff565b60009283526001602052604090922091039055612777816138cb565b905061269d565b836001600160a01b0316d41561192c5760405163f23a6e6160e01b81526001600160a01b0385169063f23a6e61906127c29089908990889088908890600401613421565b602060405180830381600087803b1580156127dc57600080fd5b505af192505050801561280c575060408051601f3d908101601f191682019092526128099181019061315d565b60015b6128b957612818613952565b806308c379a01415612852575061282d61396e565b806128385750612854565b8060405162461bcd60e51b81526004016107ff9190613511565b505b60405162461bcd60e51b815260206004820152603460248201527f455243313135353a207472616e7366657220746f206e6f6e20455243313135356044820152732932b1b2b4bb32b91034b6b83632b6b2b73a32b960611b60648201526084016107ff565b6001600160e01b0319811663f23a6e6160e01b1461177e5760405162461bcd60e51b81526004016107ff90613524565b836001600160a01b0316d41561192c5760405163bc197c8160e01b81526001600160a01b0385169063bc197c819061292d90899089908890889088906004016133c3565b602060405180830381600087803b15801561294757600080fd5b505af1925050508015612977575060408051601f3d908101601f191682019092526129749181019061315d565b60015b61298357612818613952565b6001600160e01b0319811663bc197c8160e01b1461177e5760405162461bcd60e51b81526004016107ff90613524565b606060006129c28360026137eb565b6129cd9060026137bf565b6001600160401b038111156129e4576129e461393c565b6040519080825280601f01601f191660200182016040528015612a0e576020820181803683370190505b509050600360fc1b81600081518110612a2957612a29613926565b60200101906001600160f81b031916908160001a905350600f60fb1b81600181518110612a5857612a58613926565b60200101906001600160f81b031916908160001a9053506000612a7c8460026137eb565b612a879060016137bf565b90505b6001811115612aff576f181899199a1a9b1b9c1cb0b131b232b360811b85600f1660108110612abb57612abb613926565b1a60f81b828281518110612ad157612ad1613926565b60200101906001600160f81b031916908160001a90535060049490941c93612af88161384d565b9050612a8a565b508315612b4e5760405162461bcd60e51b815260206004820181905260248201527f537472696e67733a20686578206c656e67746820696e73756666696369656e7460448201526064016107ff565b9392505050565b828054612b6190613864565b90600052602060002090601f016020900481019282612b835760008555612bc9565b82601f10612b9c57805160ff1916838001178555612bc9565b82800160010185558215612bc9579182015b82811115612bc9578251825591602001919060010190612bae565b50612bd5929150612bd9565b5090565b5b80821115612bd55760008155600101612bda565b60006001600160401b03831115612c0757612c0761393c565b604051612c1e601f8501601f19166020018261389f565b809150838152848484011115612c3357600080fd5b83836020830137600060208583010152509392505050565b600081356001600160a81b0381168114612c6457600080fd5b6001600160a01b031692915050565b60008083601f840112612c8557600080fd5b5081356001600160401b03811115612c9c57600080fd5b6020830191508360208260051b8501011115612cb757600080fd5b9250929050565b600082601f830112612ccf57600080fd5b81356020612cdc8261379c565b604051612ce9828261389f565b8381528281019150858301600585901b87018401881015612d0957600080fd5b60005b85811015612d2857813584529284019290840190600101612d0c565b5090979650505050505050565b600082601f830112612d4657600080fd5b612b4e83833560208501612bee565b600060208284031215612d6757600080fd5b612b4e82612c4b565b60008060408385031215612d8357600080fd5b612d8c83612c4b565b9150612d9a60208401612c4b565b90509250929050565b600080600080600060a08688031215612dbb57600080fd5b612dc486612c4b565b9450612dd260208701612c4b565b935060408601356001600160401b0380821115612dee57600080fd5b612dfa89838a01612cbe565b94506060880135915080821115612e1057600080fd5b612e1c89838a01612cbe565b93506080880135915080821115612e3257600080fd5b50612e3f88828901612d35565b9150509295509295909350565b600080600080600060a08688031215612e6457600080fd5b612e6d86612c4b565b9450612e7b60208701612c4b565b9350604086013592506060860135915060808601356001600160401b03811115612ea457600080fd5b612e3f88828901612d35565b600080600080600060608688031215612ec857600080fd5b612ed186612c4b565b945060208601356001600160401b0380821115612eed57600080fd5b612ef989838a01612c73565b90965094506040880135915080821115612f1257600080fd5b50612f1f88828901612c73565b969995985093965092949392505050565b60008060408385031215612f4357600080fd5b612f4c83612c4b565b915060208301358015158114612f6157600080fd5b809150509250929050565b60008060408385031215612f7f57600080fd5b612f8883612c4b565b946020939093013593505050565b600080600060608486031215612fab57600080fd5b612fb484612c4b565b95602085013595506040909401359392505050565b60008060408385031215612fdc57600080fd5b82356001600160401b0380821115612ff357600080fd5b818501915085601f83011261300757600080fd5b813560206130148261379c565b604051613021828261389f565b8381528281019150858301600585901b870184018b101561304157600080fd5b600096505b8487101561306b5761305781612c4b565b835260019690960195918301918301613046565b509650508601359250508082111561308257600080fd5b5061308f85828601612cbe565b9150509250929050565b600080600080604085870312156130af57600080fd5b84356001600160401b03808211156130c657600080fd5b6130d288838901612c73565b909650945060208701359150808211156130eb57600080fd5b506130f887828801612c73565b95989497509550505050565b60006020828403121561311657600080fd5b5035919050565b6000806040838503121561313057600080fd5b82359150612d9a60208401612c4b565b60006020828403121561315257600080fd5b8135612b4e816139f7565b60006020828403121561316f57600080fd5b8151612b4e816139f7565b60006020828403121561318c57600080fd5b81356001600160401b038111156131a257600080fd5b8201601f810184136131b357600080fd5b61147b84823560208401612bee565b81835260006001600160fb1b038311156131db57600080fd5b8260051b8083602087013760009401602001938452509192915050565b600081518084526020808501945080840160005b838110156132285781518752958201959082019060010161320c565b509495945050505050565b6000815180845261324b816020860160208601613821565b601f01601f19169290920160200192915050565b60008151613271818560208601613821565b9290920192915050565b60006001600160fb1b0383111561329157600080fd5b8260051b80858437600092019182525092915050565b600080845481600182811c9150808316806132c357607f831692505b60208084108214156132e357634e487b7160e01b86526022600452602486fd5b8180156132f7576001811461330857613335565b60ff19861689528489019650613335565b60008b81526020902060005b8681101561332d5781548b820152908501908301613314565b505084890196505b505050505050613345818561325f565b95945050505050565b7f416363657373436f6e74726f6c3a206163636f756e7420000000000000000000815260008351613386816017850160208801613821565b7001034b99036b4b9b9b4b733903937b6329607d1b60179184019182015283516133b7816028840160208801613821565b01602801949350505050565b6001600160a01b0386811682528516602082015260a0604082018190526000906133ef908301866131f8565b828103606084015261340181866131f8565b905082810360808401526134158185613233565b98975050505050505050565b6001600160a01b03868116825285166020820152604081018490526060810183905260a06080820181905260009061345b90830184613233565b979650505050505050565b60208082528181018390526000908460408401835b868110156134a7576001600160a01b0361349484612c4b565b168252918301919083019060010161347b565b509695505050505050565b6040815260006134c66040830186886131c2565b828103602084015261345b8185876131c2565b602081526000612b4e60208301846131f8565b6040815260006134ff60408301856131f8565b828103602084015261334581856131f8565b602081526000612b4e6020830184613233565b60208082526028908201527f455243313135353a204552433131353552656365697665722072656a656374656040820152676420746f6b656e7360c01b606082015260800190565b60208082526024908201527f455243313135353a206275726e20616d6f756e7420657863656564732062616c604082015263616e636560e01b606082015260800190565b60208082526029908201527f455243313135353a2063616c6c6572206973206e6f74206f776e6572206e6f7260408201526808185c1c1c9bdd995960ba1b606082015260800190565b60208082526028908201527f416363657373436f6e74726f6c3a206172726179206f6620646966666572656e6040820152670e840d8cadccee8d60c31b606082015260800190565b60208082526025908201527f455243313135353a207472616e7366657220746f20746865207a65726f206164604082015264647265737360d81b606082015260800190565b60208082526023908201527f455243313135353a206275726e2066726f6d20746865207a65726f206164647260408201526265737360e81b606082015260800190565b6020808252602a908201527f455243313135353a20696e73756666696369656e742062616c616e636520666f60408201526939103a3930b739b332b960b11b606082015260800190565b60208082526028908201527f455243313135353a2069647320616e6420616d6f756e7473206c656e677468206040820152670dad2e6dac2e8c6d60c31b606082015260800190565b60208082526021908201527f455243313135353a206d696e7420746f20746865207a65726f206164647265736040820152607360f81b606082015260800190565b60006001600160401b038211156137b5576137b561393c565b5060051b60200190565b600082198211156137d2576137d26138fa565b500190565b6000826137e6576137e6613910565b500490565b6000816000190483118215151615613805576138056138fa565b500290565b60008282101561381c5761381c6138fa565b500390565b60005b8381101561383c578181015183820152602001613824565b83811115611cf45750506000910152565b60008161385c5761385c6138fa565b506000190190565b600181811c9082168061387857607f821691505b6020821081141561389957634e487b7160e01b600052602260045260246000fd5b50919050565b601f8201601f191681016001600160401b03811182821017156138c4576138c461393c565b6040525050565b60006000198214156138df576138df6138fa565b5060010190565b6000826138f5576138f5613910565b500690565b634e487b7160e01b600052601160045260246000fd5b634e487b7160e01b600052601260045260246000fd5b634e487b7160e01b600052603260045260246000fd5b634e487b7160e01b600052604160045260246000fd5b600060033d111561396b5760046000803e5060005160e01c5b90565b600060443d101561397c5790565b6040516003193d81016004833e81513d6001600160401b0381602484011181841117156139ab57505050505090565b82850191508151818111156139c35750505050505090565b843d87010160208285010111156139dd5750505050505090565b6139ec6020828601018761389f565b509095945050505050565b6001600160e01b03198116811461136857600080fdfea26474726f6e5822122060c96d8a9b5e39700992f6e9fb2cf47014bbe086f2b1faabf2aca4c2e2ed0c0364736f6c63430008060033",
  "source": "// SPDX-License-Identifier: unlicense\r\npragma solidity ^0.8.0;\r\n\r\nimport \"@openzeppelin/contracts/access/AccessControl.sol\";\r\nimport \"./ERC1155Custom.sol\";\r\n\r\n/**\r\n * @title Space Pirates Tokens Contract\r\n * @author @Gr3it, @yuripaoloni, @MatteoLeonesi\r\n * @notice Store all the tokens data and give to other contract permission to implements logic on top of the tokens\r\n */\r\n\r\ncontract SpacePiratesTokens is ERC1155Custom, AccessControl {\r\n    /**\r\n     * Tokens' Ids distribution\r\n     *       1 -      99 Projects tokens\r\n     *     100 -     199 Wrapped tokens\r\n     *   1 000 -   9 999 Items\r\n     *  10 000 -  19 999 Titles\r\n     *  20 000 -  99 999 Decorations\r\n     * 100 000 - 199 999 Battle Fields\r\n     */\r\n    uint256 public constant DOUBLOONS = 1;\r\n    uint256 public constant ASTEROIDS = 2;\r\n    uint256 public constant VE_ASTEROIDS = 3;\r\n    uint256 public constant STK_ASTEROIDS = 4;\r\n\r\n    // Minting role = keccak256(abi.encodePacked(\"MINT_ROLE_FOR_ID\",id));\r\n    // Burning role = keccak256(abi.encodePacked(\"BURN_ROLE_FOR_ID\",id));\r\n    bytes32 public constant WRAPPED_MINT_ROLE = keccak256(\"WRAPPED_MINT_ROLE\");\r\n    bytes32 public constant WRAPPED_BURN_ROLE = keccak256(\"WRAPPED_BURN_ROLE\");\r\n    bytes32 public constant ITEMS_MINT_ROLE = keccak256(\"ITEMS_MINT_ROLE\");\r\n    bytes32 public constant ITEMS_BURN_ROLE = keccak256(\"ITEMS_BURN_ROLE\");\r\n    bytes32 public constant TITLES_MINT_ROLE = keccak256(\"TITLES_MINT_ROLE\");\r\n    bytes32 public constant TITLES_BURN_ROLE = keccak256(\"TITLES_BURN_ROLE\");\r\n    bytes32 public constant DECORATIONS_MINT_ROLE =\r\n        keccak256(\"DECORATIONS_MINT_ROLE\");\r\n    bytes32 public constant DECORATIONS_BURN_ROLE =\r\n        keccak256(\"DECORATIONS_BURN_ROLE\");\r\n    bytes32 public constant BF_MINT_ROLE = keccak256(\"BF_MINT_ROLE\");\r\n    bytes32 public constant BF_BURN_ROLE = keccak256(\"BF_BURN_ROLE\");\r\n\r\n    bytes32 public constant URI_SETTER_ROLE = keccak256(\"URI_SETTER_ROLE\");\r\n    bytes32 public constant CAN_PAUSE_ROLE = keccak256(\"CAN_PAUSE_ROLE\");\r\n    bytes32 public constant CAN_UNPAUSE_ROLE = keccak256(\"CAN_UNPAUSE_ROLE\");\r\n    bytes32 public constant TRANSFERABLE_SETTER_ROLE =\r\n        keccak256(\"TRANSFERABLE_SETTER_ROLE\");\r\n\r\n    event Mint(\r\n        address indexed sender,\r\n        uint256 id,\r\n        uint256 amount,\r\n        address indexed to\r\n    );\r\n    event Burn(address indexed sender, uint256 id, uint256 amount);\r\n    event MintBatch(\r\n        address indexed sender,\r\n        uint256[] ids,\r\n        uint256[] amounts,\r\n        address indexed to\r\n    );\r\n    event BurnBatch(address indexed sender, uint256[] ids, uint256[] amounts);\r\n    event GrantRole(bytes32 indexed role, address account);\r\n    event RevokeRole(bytes32 indexed role, address account);\r\n    event GrantMultiRole(bytes32[] indexed roles, address[] accounts);\r\n    event RevokeMultiRole(bytes32[] indexed roles, address[] accounts);\r\n    event RenounceRole(bytes32 indexed role, address account);\r\n    event Pause();\r\n    event Unpause();\r\n    event LockTokenTransfer();\r\n    event UnLockTokenTransfer();\r\n    event UriUpdate(string newUri);\r\n\r\n    constructor(string memory uri) ERC1155Custom(uri) {\r\n        _mint(msg.sender, DOUBLOONS, 1_000_000 * (10**18), \"\");\r\n        _mint(msg.sender, ASTEROIDS, 100 * (10**18), \"\");\r\n\r\n        _setupRole(DEFAULT_ADMIN_ROLE, msg.sender);\r\n    }\r\n\r\n    function supportsInterface(bytes4 interfaceId)\r\n        public\r\n        view\r\n        virtual\r\n        override(ERC1155Custom, AccessControl)\r\n        returns (bool)\r\n    {\r\n        return super.supportsInterface(interfaceId);\r\n    }\r\n\r\n    function setURI(string memory newUri) public onlyRole(URI_SETTER_ROLE) {\r\n        _setURI(newUri);\r\n        emit UriUpdate(newUri);\r\n    }\r\n\r\n    function lockTokenTransfer(uint256 id)\r\n        public\r\n        onlyRole(TRANSFERABLE_SETTER_ROLE)\r\n    {\r\n        _setTrasferBlock(id, true);\r\n        emit LockTokenTransfer();\r\n    }\r\n\r\n    function unLockTokenTransfer(uint256 id)\r\n        public\r\n        onlyRole(TRANSFERABLE_SETTER_ROLE)\r\n    {\r\n        _setTrasferBlock(id, false);\r\n        emit UnLockTokenTransfer();\r\n    }\r\n\r\n    function pause() public onlyRole(CAN_PAUSE_ROLE) {\r\n        _pause();\r\n        emit Pause();\r\n    }\r\n\r\n    function unpause() public onlyRole(CAN_UNPAUSE_ROLE) {\r\n        _unpause();\r\n        emit Unpause();\r\n    }\r\n\r\n    function mint(\r\n        address to,\r\n        uint256 id,\r\n        uint256 amount\r\n    ) public {\r\n        _checkMintRole(id);\r\n        _mint(to, id, amount, \"\");\r\n        emit Mint(msg.sender, id, amount, to);\r\n    }\r\n\r\n    function burn(\r\n        address from,\r\n        uint256 id,\r\n        uint256 amount\r\n    ) public {\r\n        require(\r\n            from == _msgSender() || isApprovedForAll(from, _msgSender()),\r\n            \"ERC1155: caller is not owner nor approved\"\r\n        );\r\n        _checkBurnRole(id);\r\n        _burn(from, id, amount);\r\n        emit Burn(from, id, amount);\r\n    }\r\n\r\n    function mintBatch(\r\n        address to,\r\n        uint256[] calldata ids,\r\n        uint256[] calldata amounts\r\n    ) public {\r\n        _checkMintBatchRole(ids);\r\n        _mintBatch(to, ids, amounts, \"\");\r\n        emit MintBatch(msg.sender, ids, amounts, to);\r\n    }\r\n\r\n    function burnBatch(\r\n        address from,\r\n        uint256[] calldata ids,\r\n        uint256[] calldata amounts\r\n    ) public {\r\n        require(\r\n            from == _msgSender() || isApprovedForAll(from, _msgSender()),\r\n            \"ERC1155: caller is not owner nor approved\"\r\n        );\r\n        _checkBurnBatchRole(ids);\r\n        _burnBatch(from, ids, amounts);\r\n        emit BurnBatch(from, ids, amounts);\r\n    }\r\n\r\n    function grantRole(bytes32 role, address account)\r\n        public\r\n        override\r\n        onlyRole(getRoleAdmin(role))\r\n    {\r\n        _grantRole(role, account);\r\n        emit GrantRole(role, account);\r\n    }\r\n\r\n    function revokeRole(bytes32 role, address account)\r\n        public\r\n        override\r\n        onlyRole(getRoleAdmin(role))\r\n    {\r\n        _revokeRole(role, account);\r\n        emit RevokeRole(role, account);\r\n    }\r\n\r\n    function grantMultiRole(\r\n        bytes32[] calldata roles,\r\n        address[] calldata accounts\r\n    ) public {\r\n        require(\r\n            roles.length == accounts.length,\r\n            \"AccessControl: array of different length\"\r\n        );\r\n        for (uint256 i = 0; i < roles.length; ++i) {\r\n            _checkRole(getRoleAdmin(roles[i]), msg.sender);\r\n            _grantRole(roles[i], accounts[i]);\r\n        }\r\n        emit GrantMultiRole(roles, accounts);\r\n    }\r\n\r\n    function revokeMultiRole(\r\n        bytes32[] calldata roles,\r\n        address[] calldata accounts\r\n    ) public {\r\n        require(\r\n            roles.length == accounts.length,\r\n            \"AccessControl: array of different length\"\r\n        );\r\n        for (uint256 i = 0; i < roles.length; ++i) {\r\n            _checkRole(getRoleAdmin(roles[i]), msg.sender);\r\n            _revokeRole(roles[i], accounts[i]);\r\n        }\r\n        emit RevokeMultiRole(roles, accounts);\r\n    }\r\n\r\n    function _checkMintRole(uint256 id) internal view {\r\n        if (\r\n            hasRole(\r\n                keccak256(abi.encodePacked(\"MINT_ROLE_FOR_ID\", id)),\r\n                msg.sender\r\n            )\r\n        ) return;\r\n        if (id <= 199 && id >= 100 && hasRole(WRAPPED_MINT_ROLE, msg.sender))\r\n            return;\r\n        if (id <= 9_999 && id >= 1_000 && hasRole(ITEMS_MINT_ROLE, msg.sender))\r\n            return;\r\n        if (\r\n            id <= 19_999 &&\r\n            id >= 10_000 &&\r\n            hasRole(TITLES_MINT_ROLE, msg.sender)\r\n        ) return;\r\n        if (\r\n            id <= 99_999 &&\r\n            id >= 20_000 &&\r\n            hasRole(DECORATIONS_MINT_ROLE, msg.sender)\r\n        ) return;\r\n        if (id <= 199_999 && id >= 100_000 && hasRole(BF_MINT_ROLE, msg.sender))\r\n            return;\r\n        revert(\"AccessControl: missing mint role\");\r\n    }\r\n\r\n    function _checkBurnRole(uint256 id) internal view {\r\n        if (\r\n            hasRole(\r\n                keccak256(abi.encodePacked(\"BURN_ROLE_FOR_ID\", id)),\r\n                msg.sender\r\n            )\r\n        ) return;\r\n        if (id <= 199 && id >= 100 && hasRole(WRAPPED_BURN_ROLE, msg.sender))\r\n            return;\r\n        if (id <= 9_999 && id >= 1_000 && hasRole(ITEMS_BURN_ROLE, msg.sender))\r\n            return;\r\n        if (\r\n            id <= 19_999 &&\r\n            id >= 10_000 &&\r\n            hasRole(TITLES_BURN_ROLE, msg.sender)\r\n        ) return;\r\n        if (\r\n            id <= 99_999 &&\r\n            id >= 20_000 &&\r\n            hasRole(DECORATIONS_BURN_ROLE, msg.sender)\r\n        ) return;\r\n        if (id <= 199_999 && id >= 100_000 && hasRole(BF_BURN_ROLE, msg.sender))\r\n            return;\r\n        revert(\"AccessControl: missing burn role\");\r\n    }\r\n\r\n    function _checkMintBatchRole(uint256[] calldata ids) internal view {\r\n        for (uint256 i = 0; i < ids.length; ++i) {\r\n            _checkMintRole(ids[i]);\r\n        }\r\n    }\r\n\r\n    function _checkBurnBatchRole(uint256[] calldata ids) internal view {\r\n        for (uint256 i = 0; i < ids.length; ++i) {\r\n            _checkBurnRole(ids[i]);\r\n        }\r\n    }\r\n}\r\n",
  "sourcePath": "C:/Users/emanu/space-pirates-contracts/contracts/SpacePiratesTokens.sol",
  "compiler": {
    "name": "solc",
    "version": "0.8.6+commit.0e36fba0.mod.Emscripten.clang"
  },
  "schemaVersion": "2.0.1",
  "updatedAt": "2022-08-01T20:36:28.162Z"
}